:100000000C948F000C9400000C9400000C940000E1
:100010000C9400000C9400000C9400000C94000060
:100020000C9400000C9400000C9400000C94000050
:100030000C9400000C9400000C9400000C94000040
:100040000C9400000C9400000C9400000C94000030
:100050000C9400000C9400000C9400000C94000020
:100060000C9400000C9400000C9400000C94000010
:100070000C9400000C9400000C9400000C94000000
:100080000C9400000C9400000C9400000C940000F0
:100090000C9400000C9400000C9400000C940000E0
:1000A0000C9400000C9400000C9400000C940000D0
:1000B0000C9400000C9400000C9400000C940000C0
:1000C0000C9400000C9400000C9400000C940000B0
:1000D0000C9400000C9400000C9400000C940000A0
:1000E0000C9400001027E80364000A0001000010CF
:1000F0000001100001005265616420414443204327
:100100004830203A2025640D0A0001002D4E414E52
:1001100000494E460000010000060A010000F89464
:10012000EE27EFBBF1E0F5BFE5BFE0937400E0938D
:100130007500F8E1A895A4B7A77FA4BFF09360006D
:10014000E09360008DE0A2E0BB27ED938A95E9F78C
:1001500080E090E2A0E0B2E0ED930197E9F7E6E1FC
:10016000F1E085919591009761F0A591B591059089
:100170001590BF01F00105900D920197E1F7FB0189
:10018000F0CF8BBF8CBFE0E0EEBBEFEFEDBFE1E265
:10019000EEBFC0E0D6E00C94CD0000E010E020E01F
:1001A00030E00E945602E0E0E0BBA0E0B0E03FD0CB
:1001B000E1E0EA93A0E0B6E90E945601E1E0EA93AB
:1001C000D90149D0E2E0EA93D90145D0A0E01CD0A2
:1001D0008F01E6EFF0E0FA93EA93F8010E94B80489
:1001E0000E94C50484E00E94E8012696A4EFB1E0D5
:1001F0000E94A6042E5C3F4F2030E1E03E0714F041
:1002000020E030E0DBCFFFCFAA93E881E064E09309
:100210007C00E0917A00E064E0937A00E0917A005B
:10022000E071E1F3E0917800F0917900CFC0BA93EA
:10023000AA93E0E8E0BFE0E0E0937B00E0937F007A
:10024000E0937E00E0937D00E0937C00E3E8E093A0
:100250007A00229608950E943004E130A0E0FA0767
:1002600069F4279AE4B5E068E4BDE4B5E360E4BD71
:10027000E5B5E260E5BDE881E7BD17C0E230A0E08A
:10028000FA0799F4249AE091B000E068E093B00096
:10029000E091B000E360E093B000E091B100E26073
:1002A000E093B100E881E093B3006BC00E9430049A
:1002B0003097B9F40E94350421F40E943B04E3E333
:1002C0000DC00E94480421F40E943B04E2E206C0F3
:1002D0000E944E0429F40E943B04ECE0E093C40029
:1002E00050C0E130A0E0FA07B9F40E94350421F4CF
:1002F0000E945404E3E30DC00E94480421F40E94CC
:100300005404E2E206C00E944E0429F40E94540400
:10031000ECE0E093CC0035C0E230A0E0FA07B9F49D
:100320000E94350421F40E946104E3E30DC00E94A1
:10033000480421F40E946104E2E206C00E944E04D7
:1003400029F40E946104ECE0E093D4001AC0E33089
:10035000A0E0FA07B1F40E94350421F40E946E0473
:10036000E3E30DC00E94480421F40E946E04E2E21F
:1003700006C00E944E0429F40E946E04ECE0E09353
:10038000340123960895AA93E091C000E072E1F34E
:10039000E881E093C6001AC0AA93E091C800E07219
:1003A000E1F3E881E093CE0011C0AA93E091D00080
:1003B000E072E1F3E881E093D60008C0AA93E091EF
:1003C0003001E072E1F3E881E0933601219608956F
:1003D000FF92F82ED1500E94CC0400E010E0DE0124
:1003E000A050BF4F0E94B0049D01FE013496FA93C5
:1003F000EA93DE01AA5FBE4F0E94B0040E94BD04D2
:10040000FA93EA93D9010E94EB03E1E0EA93DE015B
:10041000159606D00E94D3042496DF5FFF900895BE
:10042000BA93AA931A9310E0EB81F0E0309761F44D
:100430000E947B04EC91E03031F00E947B04AC918F
:10044000A2DF1F5FF5CF2FC0E130A0E0FA0761F413
:100450000E947B04EC91E03031F00E947B04AC916F
:100460009BDF1F5FF5CF1FC0E230A0E0FA0761F409
:100470000E947B04EC91E03031F00E947B04AC914F
:1004800094DF1F5FF5CF0FC0E330A0E0FA0759F407
:100490000E947B04EC91E03031F00E947B04AC912F
:1004A0008DDF1F5FF5CF188124960895E0E8E09373
:1004B0006100E0E0E0936100E4B7E0FD0CC0E4B768
:1004C000E1FD09C0E4B7E2FD06C0E4B7E3FD03C007
:1004D000E4B7E4FF03C0E4B7E07EE4BFEFEFE093EE
:1004E0007F00E0937E000895BA93AA931A930A932B
:1004F000AA81BB8112960E94BD04309759F1AA814E
:10050000BB8114960E94BD048F01309761F00230C8
:10051000E0E01E07F0F0F80131978F01AA81BB815E
:100520001496ED93FC93AA81BB811296ED91FD91F7
:100530003196FE93EE933197AC81A083AA81BB8163
:100540000E94BD04FF232AF0ED91FD913196FE93A8
:10055000EE9306C0AA81BB81EFEFFFEFED93FC9312
:100560001981088125960895BA93AA9326970E9427
:10057000CA0410E0AC85BD85E0E0F0E0ED93FC93AB
:10058000EA89FB893196EA8BFB8B3197E4912E2F18
:10059000E03011F40C94E303E12FE03039F425321C
:1005A00011F411E002C00E9481040CC1E130A9F4F1
:1005B000253219F40E94810404C112E040E000E0F9
:1005C0002D3211F401E0FEC02B3211F44BE2FAC0DF
:1005D000203211F440E2F6C002C0E23039F450E0BB
:1005E00013E0203311F40068EDC004C0E33011F0D3
:1005F0000C94E203203310F02A3308F007C0AAE07D
:100600005A9F502DE22FE0535E0FDCC0E22FE336FD
:1006100049F40E948804E889F989A481AA930E9478
:100620008E04CFC0E33741F40E9488040E949404F2
:100630000E9417041E2F0AC0E03761F40E9488044C
:100640000E9494040E9423041E2F086002600F770A
:1006500030E035C0E43611F0E93611F4046002C030
:10066000E53731F4E4EEF0E0EE83FF8315E00DC0F2
:10067000E83511F4086004C0E83711F00C94E10388
:10068000EEEEF0E0EE83FF8314E002FF14C00E9460
:1006900088040E949E04AB85AA233AF4EA85FB8570
:1006A0000E94B404EA87FB874DE2403011F01F5FDF
:1006B00001C00B7F04C00E9488040E949E0400FDBC
:1006C00011C0151778F407FF08C002FF04C00B7FA4
:1006D000242F115001C020E301C020E20E948104B8
:1006E0005150EFCF312F01FF17C03030A1F003FF81
:1006F00006C0EE81FF812591EE83FF8305C0AE81A8
:10070000BF812D91AE83BF830E948104503009F0D8
:1007100051503150EACF4BC020E3EE81FF810E945F
:10072000C104E887F987EE81FF813296EE83FF836B
:10073000E885F985AA85BB85AE17BF0750F02F5F06
:10074000A885B985EA85FB85EA1BFB0BEA87FB8751
:10075000EFCF2A3328F003FF02C0295F01C0295DD3
:1007600004FD1AC0213320F4A885B985119709F436
:1007700009C0531710F000FF01C013C020E207FFAB
:100780000BC020E3006102FF07C00B7F4A930E9469
:100790008E04503009F051500E948104503009F00D
:1007A00051503150A885B985129708F0B5CF00FF98
:1007B00008C0503031F05150E0E2EA930E948E04BC
:1007C000F8CF10E0DDCEAC85BD850E94BD040E944F
:1007D000D10464960895BA93AA9326971A930A931C
:1007E000EC85FD85309719F4EFEFFFEF1CC0EC8529
:1007F000FD85EC83FD83E0E0EE83EF83EA85FB85F6
:10080000FA93EA93EA85FB85FA93EA93E4E7F2E048
:10081000FA93EA93DE011896A7DE8F01AC81BD81C1
:10082000E0E0EC93F801198108812E960895BA93BF
:10083000AA93A991B991EE27FF276D91662311F034
:100840003196FBCF0895BA93AA93AA27BB27E991C3
:10085000F9910590002011F01196FBCFFD0108954C
:10086000BA93AA93EA81F0E00895A881B981A038EB
:10087000E5E2BE070895E0E0E093C000E8E9E09318
:10088000C100E6E0E093C200E0E0E093C500089517
:10089000A881B981A034E8E3BE070895A881B98191
:1008A000A030E6E9BE070895E0E0E093C800E8E97B
:1008B000E093C900E6E0E093CA00E0E0E093CD00F9
:1008C0000895E0E0E093D000E8E9E093D100E6E0AD
:1008D000E093D200E0E0E093D5000895E0E0E093FB
:1008E0003001E8E9E0933101E6E0E0933201E0E035
:1008F000E09335010895A981BA81EE27A10FBE1FAB
:1009000008952A93AD85BE85EF85F88909950895E8
:10091000E889F9893497E88BF98B0895AD85BE8510
:10092000EF85F88909950895A889B98914960E94D8
:10093000BD04EE83FF83AE81BF810895A889B98984
:1009400014960E94BD04EA87FB870895109639F03B
:1009500080ED97E00197F1F7A8951197C9F70895F1
:100960000024AF0DB01D0895F195E195F040089574
:100970006F2F660F660B762F0895ED91FC911197FE
:1009800008950590F491E02D08957A936A93FA936F
:10099000EA9308955A934A933A932A931A930A939F
:1009A00008955D814C813B812A81198108810895D8
:00000001FF
