:020000040800F2
:10000000D84F0020590200082D380008FD2E0008A6
:100010002938000819080008014100080000000004
:100020000000000000000000000000009D0100082A
:100030006108000800000000F10100082D390008E7
:1000400073020008730200087302000873020008BC
:100050007302000869380008730200087302000880
:10006000730200087302000873020008730200089C
:10007000730200087302000873020008730200088C
:100080001D080008730200087302000873020008CC
:10009000730200087302000873020008730200086C
:1000A000730200087302000873020008730200085C
:1000B000730200087302000873020008112F000881
:1000C000012F000873020008730200086D38000851
:1000D0007302000873020008C5400008D9400008F8
:1000E000730200087302000873020008730200081C
:1000F000730200087302000873020008730200080C
:1001000073020008730200087302000873020008FB
:100110006D3A0008730200087302000873020008B9
:1001200073020008730200087302000873020008DB
:1001300073020008730200087302000873020008CB
:1001400073020008730200087302000873020008BB
:10015000730200087302000873020008ED400008F3
:10016000730200087302000873020008730200089B
:100170007302000873020008730200080000000008
:100180007302000873020008DFF80CD000F0A4FA34
:1001900000480047754C0008D84F00202B4B1968C9
:1001A0000868B0E8F04F80F30988BFF36F8F4FF015
:1001B000000080F3118870470000000006480068C6
:1001C000006880F3088862B661B6BFF34F8FBFF353
:1001D0006F8F00DF00BF00BF08ED00E0DFF80C000C
:1001E000016841F470010160704700BF88ED00E0D4
:1001F000EFF30980BFF36F8F144B1A681EF0100FD6
:1002000008BF20ED108A20E9F04F106008B44FF0CD
:10021000500080F31188BFF34F8FBFF36F8F06F04C
:10022000B9F84FF0000080F3118808BC196808681D
:10023000B0E8F04F1EF0100F08BFB0EC108A80F34A
:100240000988BFF36F8F704700BF00BF24000020F4
:10025000EFF30580704700000648804706480047D6
:10026000FEE7FEE7FEE7FEE7FEE7FEE7FEE7FEE766
:10027000FEE7FEE7093A00088901000800487047D8
:10028000EC72000840EA01039B0703D009E008C9AB
:10029000121F08C0042AFAD203E011F8013B00F84B
:1002A000013B521EF9D27047D2B201E000F8012B97
:1002B000491EFBD270470022F6E710B513460A46E6
:1002C00004461946FFF7F0FF204610BD421C10F807
:1002D000011B0029FBD1801A704730B50B4601463F
:1002E00000202022012409E021FA02F59D4205D3D5
:1002F00003FA02F5491B04FA02F52844151EA2F17F
:100300000102F1DC30BD2DE9F05F05460020924688
:100310009B4688460646814640241BE028464146C7
:100320004746224600F0F9F953465A46C01A914111
:1003300010D311461846224600F0E0F92D1A67EB5B
:1003400001084F4622460120002100F0D7F917EBA3
:1003500000094E41201EA4F10104DFDC484631466D
:100360002A464346BDE8F09F2DE9FE4F804681EACC
:100370000300C00F0C46009021F0004123F000451F
:10038000B8EB0200A94105D24046214690461C46E2
:100390000B46024623F00040104347D0270DC7F319
:1003A0000A00C3F30A510290401A019040286BDA08
:1003B000C3F3130040F4801B0098924620B1002341
:1003C000D2EB030A63EB0B0B01985946C0F14002D4
:1003D000504600F093F906460D4650465946019A9C
:1003E00000F0ABF910EB08006141002487EA1152DC
:1003F00084EAE7731A4340D0009A62B3019A012A53
:100400004FEA075215DC001B61EB02014FF000427E
:1004100002EA0752CDE90042001C41F58011324644
:100420002B4600F0ABF903B0BDE8F08F4046214603
:10043000F9E7001B61EB0201001C41F58013001875
:100440005B412018A2F5001747EB030140EAD57085
:10045000B6196D4111E06D084FEA360645EAC075E0
:100460004FEA0752001B61EB0201001C41F58011AD
:1004700049084FEA30000019514132462B4603B07B
:10048000BDE8F04F00F06BB9009801224000002356
:10049000D0EB020263EBE073009821464FEAE07470
:1004A000B8EB000061EB0401E9E783F000435BE790
:1004B00081F0004158E72DE9FE4F81EA030404F082
:1004C000004421F0004100944FF0000B23F0004362
:1004D00050EA01045ED052EA03045BD0C3F30A542D
:1004E000C1F30A552C44A4F2F3340194A0FB025446
:1004F000C1F3130141F48011C3F3130343F48013D8
:1005000001FB024400FB034E840A970A44EA81542B
:1005100047EA8357A4FB076802958D0A05FB078508
:100520004FEA932C04FB0C542705029D4FEA065812
:1005300047EA1637B5EB08056EEB070C870E920EEF
:1005400047EA811742EA8312A7FB0201B6EB0B01CF
:1005500064EB00042B0D43EA0C335E1844EB1C5093
:10056000DA465146E7FB0201C5F313044FEA0B33A9
:1005700043EA14534FEA0432019C43EA0603A4F110
:100580000C040294009CCDE900B400F0F7F803B02D
:10059000BDE8F08F00200146F9E72DE9F04D81EA32
:1005A000030404F0004B21F0004514464FF0000A0C
:1005B00023F0004150EA050220D054EA01021DD088
:1005C000C5F30A570246C5F31303C1F31300C1F381
:1005D0000A5640F4801543F48013A7EB0608101B5D
:1005E000D64608F2FD3873EB050002D308F1010886
:1005F00001E092185B41B8F1000F03DA00200146D8
:10060000BDE8F08D00204FF48011064684460EE0D0
:10061000171B73EB050705D3121B63EB050306439A
:100620004CEA010C49084FEA300092185B4150EA4D
:100630000107EDD152EA030012D082EA040083EAF6
:100640000501084305D0101BAB4106D2012200234F
:1006500006E000224FF0004302E06FF00102531069
:100660001AEB06004CEB085110EB0A0041EB0B01B2
:10067000BDE8F04D00F073B8C1F30A52C1F31301A5
:1006800040F2FF3341F480119A4202DA0020014621
:10069000704740F233439A42A2F2334202DC5242A4
:1006A00000F03BB800F02AB830B5041E71F1000428
:1006B00004DB4FF00044404264EB0101141E73F16F
:1006C000000405DB1C464FF00043524263EB040379
:1006D000994208BF904230BD064C074D06E0E068E5
:1006E00040F0010394E8070098471034AC42F6D379
:1006F000FFF74EFD2C7300084C730008202A04DB22
:10070000203A00FA02F1002070479140C2F1200324
:1007100020FA03F3194390407047202A04DB203A63
:1007200021FA02F00021704721FA02F3D040C2F111
:1007300020029140084319467047202A06DBCB1758
:10074000203A41FA02F043EAE07306E041FA02F38C
:10075000D040C2F12002914008431946704710B5BD
:10076000141E73F1000408DA401C41F100019218D4
:100770005B411A4301D120F0010010BD2DE9F04D7D
:1007800092469B4611B1B1FA81F202E0B0FA80F2D2
:1007900020329046FFF7B2FF04460F4640EA0A00B7
:1007A00041EA0B0153465A46084313D0114653EA17
:1007B000010019D0C8F140025046FFF7AEFF0546D0
:1007C0000E46504659464246FFF798FF084305D06B
:1007D000012004E020463946BDE8F08D00200543A5
:1007E00046EAE0762C4337430A986305E40AA0EB17
:1007F00008000022FD0A44EA47540A3002D50020CE
:100800000146E9E7010510196941DDE908450019CC
:100810006941BDE8F04DA2E700BFFEE710B5024810
:1008200000F020F810BD00004C4B00200146087875
:1008300010381823B0FBF3F20848805C4865032A9F
:1008400005D908686FF30900001D086503E0086812
:100850006FF309000865086D7047000050720008CA
:1008600000BFFEE770B50446256D286894F8542053
:1008700008219140084000B32068006800F004009F
:10088000D8B12068006820F004002168086094F85E
:10089000541008208840A860E06C40F00100E0643B
:1008A000042084F8350000BF002084F8340000BF25
:1008B000A06C10B12046A16C8847286894F8542099
:1008C0006D499140084000B32068406900F0800005
:1008D000D8B12068406920F080002168486194F810
:1008E000541065488840A860E06C40F00200E06465
:1008F000042084F8350000BF002084F8340000BFD5
:10090000A06C10B12046A16C8847286894F8542048
:100910005949C91C9140084008B32068006800F09C
:100920000200E0B12068006820F002002168086041
:1009300094F854105048C01C8840A860E06C40F007
:100940000400E064042084F8350000BF002084F82F
:10095000340000BFA06C10B12046A16C8847286805
:1009600094F85420102191400840C0B320680068DA
:1009700000F0080098B32068006800F48020B0B14F
:1009800094F8541010208840A8602068006800F493
:10099000002018B9312084F835001BE02068006879
:1009A00000F40020B0B1412084F8350012E0206846
:1009B000006800F4807028B92068006820F0080002
:1009C0002168086094F8541010208840A8603120F5
:1009D00084F83500206C10B12046216C88472868C7
:1009E00094F8542020219140084018B320680068F2
:1009F00000F01000F0B12068006800F48020D0B151
:100A000094F8541020208840A8602068006800F402
:100A1000002028B9606C68B12046616C884729E0E5
:100A20002068006800F4002020B1E06B10B120467F
:100A3000E16B88471EE02068006800F4807028B9E8
:100A40002068006820F010002168086094F85410B5
:100A500020208840A860E06CE064112084F8350014
:100A600000BF002084F8340000BFE06B10B12046C6
:100A7000E16B884770BD00000100800070B504463E
:100A800000250CB9012070BDA8492068884249D0D2
:100A9000A64918312068884244D0A44930312068E2
:100AA00088423FD0A1494831206888423AD09F49C6
:100AB00060312068884235D09C497831206888426E
:100AC00030D09A499031206888422BD09749A8317C
:100AD0002068884226D096492068884222D09449CE
:100AE0001831206888421DD09149303120688842F1
:100AF00018D08F4948312068884213D08C49603122
:100B0000206888420ED08A4978312068884209D00E
:100B1000874990312068884204D08549A8312068EF
:100B2000884200D103E0C52182A003F05BFF60682A
:100B3000D8B16068B0F1007F17D06068B0F1806F05
:100B400013D06068B0F1C06F0FD06068B0F1006F73
:100B50000BD06068B0F1206F07D06068B0F1406FD3
:100B600003D06068B0F1606F00D103E0C62171A0CE
:100B700003F038FFA06828B1A068402802D0A06820
:100B8000802800D103E0C7216AA003F02BFFE068B2
:100B9000B0F5007F01D0E06800B903E0C82165A08E
:100BA00003F020FF2069B0F5806F01D0206900B903
:100BB00003E0C9215FA003F015FF606938B16069E7
:100BC000B0F5006F03D06069B0F5805F00D103E03D
:100BD000CA2158A003F006FFA06938B1A069B0F59A
:100BE000005F03D0A069B0F5804F00D103E0CB21B6
:100BF00050A003F0F7FEE06930B1E069B0F5807F06
:100C000002D0E069202800D103E0CC2149A003F004
:100C1000E9FE206A58B1206AB0F5803F07D0206A0B
:100C2000B0F5003F03D0206AB0F5403F00D103E0AB
:100C3000CD2140A003F0D6FE606A10B1606A04289E
:100C400000D103E0CE213BA003F0CCFE606A002877
:100C500035D0A06A40B1A06A012805D0A06A022858
:100C600002D0A06A032800D103E0D32131A003F011
:100C7000B9FEE06A58B1E06AB0F5000F07D0E06A4B
:100C8000B0F1807F03D0E06AB0F1C07F00D103E013
:100C9000D42128A003F0A6FE206B58B1206BB0F53C
:100CA000001F07D0206BB0F5800F03D0206BB0F58C
:100CB000C00F00D103E0D5211EA003F093FE022057
:100CC00084F835002068056828480540D4E901010A
:100CD0000843E16808432169084361690843A16941
:100CE0000843E1690843216A08430543606A042810
:100CF00003D1D4E90B01084305432068056020684F
:100D0000456925F00705606A0543606A042801D13A
:100D1000A06A0543206845612046FFF787FD002053
:100D2000E064012084F835000020ACE61060024049
:100D3000106402402E2E2F447269766572732F5311
:100D4000544D3332463478785F48414C5F44726981
:100D50007665722F5372632F73746D3332663478F5
:100D6000785F68616C5F646D612E63003F8010F096
:100D70002DE9F84306460C464FF00009C846002509
:100D8000EA48864217D0EA48864214D0E9488642AB
:100D900011D0E94886420ED0E84886420BD0E84898
:100DA000864208D0E748864205D0E748864202D00E
:100DB000E648864200D103E0C521E5A003F012FE1B
:100DC000208880B200B103E0C621E1A003F00AFE52
:100DD000606830B36068012823D06068112820D093
:100DE000606802281DD0606812281AD0E749606840
:100DF000884216D0E6496068884212D0E5496068AA
:100E000088420ED0E449606888420AD0E3496068AD
:100E1000884206D0E2496068884202D060680328B0
:100E200000D103E0C721CAA003F0DCFDA06828B10F
:100E3000A068012802D0A068022800D103E0C821E0
:100E4000C3A003F0CFFD00276BE1012000FA07F9F2
:100E5000206800EA0908C84570D16068022802D0FD
:100E6000606812286BD12069002866D020690928A3
:100E700063D02069F0B32069E0B32069D0B3206962
:100E8000C0B32069012858D02069012855D02069B5
:100E9000022852D0206902284FD0206902284CD065
:100EA0002069032849D02069042846D020690428F5
:100EB00043D02069042840D0206905283DD020690E
:100EC00005283AD02069092837D02069062834D06F
:100ED0002069092831D0206907282ED020690728E9
:100EE0002BD02069072828D02069082825D0206920
:100EF000082800E021E020D0206908281DD02069C2
:100F000009281AD02069092817D020690A2814D086
:100F100020690A2811D020690B280ED020690C28DE
:100F20000BD020690C2808D020690D2805D0206935
:100F30000C2802D020690F2802D105E0E2E017E07A
:100F4000D92183A003F04EFDF90806F1200050F8E6
:100F500021507807C10E0F20884085437907C90EBC
:100F6000206988400543F90806F1200040F8215027
:100F700035687900032088408543207900F003001C
:100F800079008840054335606068012808D06068B2
:100F9000022805D06068112802D06068122823D189
:100FA000E06840B1E068012805D0E068022802D07E
:100FB000E068032800D103E0EC2165A003F012FDF6
:100FC000B56879000320884085437900E06888404F
:100FD0000543B56075680120B84085432079C0F3AA
:100FE0000010B84005437560F5687900032088401B
:100FF00085437900A06888400543F560606800F08B
:101000008050B0F1805F7DD100BF00200090654826
:10101000006840F48040634908600846006800F4B6
:101020008040009000BF00BF5F48B90850F82150D1
:10103000B807010F0F20884085433C48864201D104
:10104000002028E03A48864201D1012023E03948B7
:10105000864201D102201EE03748864201D103209A
:1010600019E03648864201D1042014E03448864213
:1010700001D105200FE03348864201D106200AE065
:101080003148864201D1072005E03048864201D12F
:10109000082000E00920B907090F884005434248AD
:1010A000B90840F821504148056825EA08056068FC
:1010B00000F48030B0F5803F01D145EA08053B4897
:1010C0000560001D056825EA0805606800F4003029
:1010D000B0F5003F01D145EA08053448001D056020
:1010E000001D056825EA0805606800F48010B0F569
:1010F000801F01D145EA08052C4808300560001D15
:10110000056800E00CE025EA0805606800F40010BE
:10111000B0F5001F01D145EA080524480C300560F0
:101120007F1C102FFFF491AEBDE8F8830000024051
:101130000004024000080240000C0240001002407F
:101140000014024000180240001C0240002002402F
:101150002E2E2F447269766572732F53544D33329D
:10116000463478785F48414C5F4472697665722FE7
:101170005372632F73746D3332663478785F6861AD
:101180006C5F6770696F2E63000000000000111033
:101190000000211000003110000012100000221089
:1011A000000032104438024008380140003C014041
:1011B00070B506460C461546A0B200B104E040F2F8
:1011C000B11109A003F00EFC0DB1012D00D104E016
:1011D0004FF4D97104A003F005FC0DB1B46101E036
:1011E0002004B06170BD00002E2E2F447269766518
:1011F00072732F53544D3332463478785F48414CE4
:101200005F4472697665722F5372632F73746D3306
:1012100032663478785F68616C5F6770696F2E63DF
:1012200000000000014800687047000088000020AE
:10123000704700002DE9F0410446002500260027F4
:10124000A84620684069C0F3002520684068C0F3C4
:1012500000264DB1012E07D1206C40F00100206422
:101260006FF480702168486120684069C0F34025B0
:1012700020684068C0F300264DB1012E07D1206CD4
:1012800040F0020020646FF400702168486120681B
:101290004069C0F3802520684068C0F3002635B35C
:1012A000012E24D194F83E50668D94F83D70D4F808
:1012B0003080202D0DD166B9212F06D0292F04D0E2
:1012C000282F06D1B8F1210F03D1204602F02EF8C5
:1012D0000DE0206C40F0040020642068006840F4B9
:1012E0000070216808606FF48060216848612068A0
:1012F0004069C0F3C02520684068C0F300264DB1A6
:10130000012E07D1206C40F0080020646FF40060CB
:1013100021684861206C88B394F83D00292803D0E7
:1013200094F83D002A2805D100202063282084F865
:101330003D0004E000202063202084F83D00206868
:10134000006820F4006021680860204600F0D5F8AD
:1013500094F83D00282811D1206C00F004000428E6
:101360000CD10748E06200202063202084F83D0073
:10137000002084F83E00204600F0E4F9BDE8F0814A
:101380000000FFFF2DE9F04104460027002600255C
:10139000A84694F83E00102803D094F83E00402858
:1013A00046D120688069C0F3800000B3206840699E
:1013B000C0F3C01720684068C0F3802620684069E9
:1013C000C0F3800520684068C0F3402837B1012E83
:1013D00004D11DB9204601F009FF8CE0012DFCD19C
:1013E000B8F1010FF9D1204601F0A7FE83E0206893
:1013F0004069C0F3801720684068C0F380262068E9
:101400004069C0F3800520684068C0F3402837B1C8
:10141000012E04D11DB9204601F018FE6BE0012D0C
:1014200069D1B8F1010F66D1204601F079FD62E083
:1014300020684069C0F3400720684068C0F3402638
:1014400020684069C0F3001520688069C0F38008F7
:101450002FB1012E03D1204601F04DFF4BE0012DAD
:1014600005D1012E03D1204601F0BAFF43E0B8F1C7
:10147000010F20D120684069C0F3C0172068406880
:10148000C0F3802620684069C0F38005206840686A
:10149000C0F3402837B1012E04D11DB9204601F018
:1014A00001FF28E0012D26D1B8F1010F23D12046FC
:1014B00001F0EAFE1FE020684069C0F38017206851
:1014C0004068C0F3802620684069C0F3800520682A
:1014D0004068C0F3402837B1012E04D11DB9204621
:1014E00001F0A8FE07E0012D05D1B8F1010F02D1EE
:1014F000204601F090FEBDE8F081704770B50446CB
:10150000002600250CB9012070BD7A492068884268
:1015100007D079492068884203D0784920688842FA
:1015200000D104E04FF4B17175A003F05BFA60687C
:1015300020B181496068884200D804E040F263111C
:101540006FA003F04FFAA06818B1A068B0F5804F03
:1015500000D104E04FF4B27169A003F043FAE068EF
:101560006FF3090000B904E040F2651164A003F0D4
:1015700039FA2069B0F5804F03D02069B0F5404FAB
:1015800000D104E04FF4B3715DA003F02BFA606961
:1015900010B16069012800D104E040F2671158A041
:1015A00003F020FAA06920F0FE0000B904E04FF437
:1015B000B47153A003F016FAE06910B1E069402855
:1015C00000D104E040F269114DA003F00BFA206A4B
:1015D00010B1206A802800D104E04FF4B57148A012
:1015E00003F000FA94F83D0028B9002084F83C008C
:1015F000204600F0ADF8242084F83D002068006803
:1016000020F001002168086000F0B2FB05464B485D
:10161000B5FBF0F62068466049496068884201D809
:10162000701C07E04FF4967070434FF47A71B0FB72
:10163000F1F0401C216808624149606888420ED878
:1016400060684000B5FBF0F0C0F30B00042801D245
:1016500004202DE060684000B5FBF0F028E0A068B1
:1016600028B9606800EB4000B5FBF0F008E0606866
:1016700000EBC00101EB0010B5FBF0F040F480403E
:10168000C0F30B0008B9012012E0A06828B9606817
:1016900000EB4000B5FBF0F008E0606800EBC00133
:1016A00001EB0010B5FBF0F040F4804040F4004046
:1016B0002168C861D4E90701084321680860D4E9BA
:1016C0000310084321688860D4E9050108432168B4
:1016D000C8602068006840F00100216808600020B0
:1016E0002064202084F83D000020206384F83E0020
:1016F00000BF09E70054004000580040005C004073
:101700002E2E2F447269766572732F53544D3332E7
:10171000463478785F48414C5F4472697665722F31
:101720005372632F73746D3332663478785F6861F7
:101730006C5F6932632E6300801A060040420F001E
:10174000A0860100704770477047704770470000DF
:1017500010B586B004461A49206888422ED14FF44D
:10176000107001901220029001200390002004903C
:101770000420059001A91348FFF7FAFA00BF0020E2
:1017800000901148006840F400100F4908600846B6
:10179000006800F40010009000BF00BF0022052187
:1017A0001F2000F0ABF81F2000F074F80022052184
:1017B000202000F0A3F8202000F06CF806B010BD47
:1017C0000054004000040240403802407047704717
:1017D00002480068401C01490860704788000020EA
:1017E00010B50D48006840F400700B4908600846C9
:1017F000006840F4806008600846006840F480702B
:101800000860032000F0E4F80F2000F007F800F073
:1018100017F8002010BD0000003C024070B50446DF
:1018200000F08AFA4FF47A71B0FBF1F5284601F026
:1018300057F800222146501E00F060F8002070BDCD
:1018400010B5032000F0C4F8002211466FF00B0021
:1018500000F054F8002211466FF00A0000F04EF834
:10186000002211466FF0090000F048F800221146EE
:10187000101F00F043F800220F21501E00F03EF828
:1018800000220521084600F039F8052000F002F892
:1018900010BD000010B50446002C00DB03E0D02191
:1018A00007A003F09FF800BF04F01F01012088404B
:1018B0006109890001F1E021C1F8000100BF10BDFC
:1018C0002E2E2F447269766572732F53544D333226
:1018D000463478785F48414C5F4472697665722F70
:1018E0005372632F73746D3332663478785F686136
:1018F0006C5F636F727465782E6300002DE9F05F92
:1019000080460C4615460027102D00D203E0BC216E
:1019100020A003F067F8102C00D203E0BD211DA029
:1019200003F060F801F084FF0746394622462B4653
:1019300001F00700C0F1070ABAF1040F02D94FF015
:10194000040A01E0C0F1070AD14600F1040ABAF125
:10195000070F02D24FF0000A01E0A0F1030AD446BB
:101960004FF0010A0AFA09FAAAF1010A0AEA020A80
:101970000AFA0CFA4FF0010B0BFA0CFBABF1010B5E
:101980000BEA030B4AEA0B063146404601F058FFCA
:10199000BDE8F09F2E2E2F447269766572732F5327
:1019A000544D3332463478785F48414C5F44726915
:1019B0007665722F5372632F73746D333266347889
:1019C000785F68616C5F636F727465782E63000086
:1019D00010B50446072C07D0062C05D0052C03D0E3
:1019E000042C01D0032C00D103E0A42109A002F0B3
:1019F000F9FF00BF04F00701154A10684FF6FF0217
:101A00001040144A024342EA0120114A106000BF0C
:101A100010BD00002E2E2F447269766572732F530D
:101A2000544D3332463478785F48414C5F44726994
:101A30007665722F5372632F73746D333266347808
:101A4000785F68616C5F636F727465782E63000005
:101A50000CED00E00000FA0570B504460D460026C6
:101A60002068012803D320680F2800D804E04FF431
:101A70000E71A1A002F0B6FF6DB1012D0BD0022DA9
:101A800009D0032D07D0042D05D0052D03D0062D38
:101A900001D0072D00D104E040F2392196A002F0D8
:101AA000A1FFA348006800F00F00A84209D2A04996
:101AB0000D700846006800F00F00A84201D0012018
:101AC00070BD207800F00200022827D1A068B8B1CC
:101AD000A068802814D0A068902811D0A068A02801
:101AE0000ED0A068B0280BD0A068C02808D0A0688D
:101AF000D02805D0A068E02802D0A068F02800D146
:101B000004E04FF414717CA002F06CFF8948006877
:101B100020F0F000A168084386490860207800F0B2
:101B2000010000284FD0606840B16068012805D0EE
:101B30006068022802D06068032800D104E040F207
:101B400057216DA002F04EFF6068012807D1794847
:101B500008380068C0F34040B8B90120B0E76068B9
:101B6000022802D06068032807D17248083800684C
:101B7000C0F3406048B90120A2E76E480838006809
:101B8000C0F3400008B901209AE76A48006820F0D5
:101B900003006168084367490860FFF743FB064696
:101BA0006068012810D108E0FFF73CFB801B41F280
:101BB0008831884201D9032082E75E48006800F03E
:101BC0000C000428F0D137E06068022810D108E04A
:101BD000FFF728FB801B41F28831884201D903209E
:101BE0006EE75448006800F00C000828F0D123E0AC
:101BF0006068032810D108E0FFF714FB801B41F256
:101C00008831884201D903205AE74A48006800F029
:101C10000C000328F0D10FE008E0FFF703FB801B66
:101C200041F28831884201D9032049E741480068E0
:101C300000F00C000028F0D13D48006800F00F00D3
:101C4000A84209D93A490D700846006800F00F0013
:101C5000A84201D0012033E7207800F004000428D6
:101C60001FD1E06878B1E068B0F5805F0BD0E06824
:101C7000B0F5A05F07D0E068B0F5C05F03D0E068C2
:101C8000B0F5E05F00D104E040F2B5211AA002F007
:101C9000A9FE2848006820F4E050E168084325497F
:101CA0000860207800F00800082820D1206978B169
:101CB0002069B0F5805F0BD02069B0F5A05F07D038
:101CC0002069B0F5C05F03D02069B0F5E05F00D1B6
:101CD00004E04FF42F7108A002F084FE154800685C
:101CE00020F46040216940EAC100124908600F20D9
:101CF000FFF794FD0020E3E62E2E2F4472697665EF
:101D000072732F53544D3332463478785F48414CC8
:101D10005F4472697665722F5372632F73746D33EB
:101D200032663478785F68616C5F7263632E63003B
:101D3000003C02400838024010B500F045F809495F
:101D4000096801F0F001F02292FAA2F2B2FA82F2EE
:101D5000D140054A515CC840044908600846006803
:101D600010BD0000083802405872000884000020AE
:101D700010B5FFF7E1FF0749096801F4E0514FF49E
:101D8000E05292FAA2F2B2FA82F2D140024A515CD7
:101D9000C84010BD083802405872000810B5FFF75F
:101DA000CBFF0749096801F460414FF4604292FAA1
:101DB000A2F2B2FA82F2D140024A515CC84010BD90
:101DC000083802405872000870B500210022002334
:101DD0000020274C246804F00C0424B1042C04D007
:101DE000082C41D103E0234840E023483EE0204C4A
:101DF000241F246804F03F011D4C241F246804F4B0
:101E0000800484B11C4CB4FBF1F5194C241F2468E8
:101E100047F6C076344096FAA6F6B6FA86F6F4404F
:101E200005FB04F20FE0134CB4FBF1F5104C241F3A
:101E3000246847F6C076344096FAA6F6B6FA86F6D7
:101E4000F44005FB04F20A4C241F246804F44034D7
:101E50004FF4403595FAA5F5B5FA85F5EC40641CCC
:101E60006300B2FBF3F001E0024800BF00BF70BDA9
:101E7000083802400024F40000127A0070B586B0E1
:101E800006460C4615460EB1012E00D104E040F284
:101E9000FA2145A002F0A6FD5DB1B5F1806F08D032
:101EA000B5F1A06F05D0B5F1C06F02D0B5F1E06F0C
:101EB00000D104E040F2FB213BA002F093FD002E94
:101EC00038D144B1B4F5001F05D0B4F5800F02D06D
:101ED000B4F5C00F00D104E040F2FF2132A002F0BF
:101EE00081FD00BF002000903D48006840F00100E7
:101EF0003B4908600846006800F00100009000BF00
:101F000000BF881501900220029003200490002059
:101F10000390059001A93348FEF72AFF304828387E
:101F2000006820F0EC6044EA050108432C49283998
:101F3000086037E044B1B4F1804F05D0B4F1004FF0
:101F400002D0B4F1404F00D104E040F2173116A0A6
:101F500002F048FD00BF002000902148006840F0DA
:101F600004001F4908600846006800F00400009063
:101F700000BF00BF4815019002200290032004908A
:101F800000200390059001A91748FEF7F1FE1448C0
:101F90002838006820F0784044EAC5010843104919
:101FA0002839086006B070BD2E2E2F447269766500
:101FB00072732F53544D3332463478785F48414C16
:101FC0005F4472697665722F5372632F73746D3339
:101FD00032663478785F68616C5F7263632E630089
:101FE00030380240000002400008024038B5044684
:101FF000002520680F2800D803E0F621F4A002F0A5
:10200000F1FC207800F00100002855D0606828B16C
:102010006068012802D06068052800D103E0FB2138
:10202000EBA002F0DFFCF848006800F00C00042888
:102030000DD0F548006800F00C00082811D1F248D6
:10204000001F006800F48000B0F5800F09D1EE4851
:1020500008380068C0F3404070B3606860BB01207E
:1020600038BD2079E849891F0870606890B1FFF792
:10207000D9F8054606E0FFF7D5F8401B642801D9DA
:102080000320EDE7E04808380068C0F3404000282E
:10209000F1D011E0FFF7C6F8054606E0FFF7C2F8F9
:1020A000401B642801D90320DAE7D74808380068C4
:1020B000C0F340400028F1D1207800F0020002284F
:1020C0007DD1E06810B1E068012800D104E040F261
:1020D0002D11BFA002F086FC20691F2800D804E063
:1020E0004FF49771BAA002F07DFCC748006800F079
:1020F0000C0058B1C448006800F00C00082821D139
:10210000C148001F006800F48000D8B9BE480838F4
:102110000068C0F3400020B1E068012801D0012030
:102120009EE7B9480838006820F0F800F82292FAD3
:10213000A2F2B2FA82F2216991400843B249083909
:1021400008603CE0E06828B30120B0490860FFF770
:1021500069F8054606E0FFF765F8401B022801D93B
:1021600003207DE7A84808380068C0F34000002835
:10217000F1D0A5480838006820F0F800F82292FA5B
:10218000A2F2B2FA82F22169914008439E490839CD
:10219000086014E000209D490860FFF743F80546F9
:1021A00006E0FFF73FF8401B022801D9032057E75C
:1021B000954808380068C0F340000028F1D1207825
:1021C00000F00800082837D1606910B16069012863
:1021D00000D104E04FF4B7717DA002F003FC606908
:1021E000A8B101208A490860FFF71CF8054606E0FF
:1021F000FFF718F8401B022801D9032030E7824876
:102200006C300068C0F340000028F1D014E00020DA
:102210007F490860FFF706F8054606E0FFF702F879
:10222000401B022801D903201AE777486C30006868
:10223000C0F340000028F1D1207800F00400042809
:1022400065D1A06828B1A068012802D0A06805283F
:1022500000D104E04FF4CC715DA002F0C3FB00BFDD
:102260000020009068483830006840F0805066498F
:10227000383108600846006800F08050009000BFC8
:1022800000BF6448006840F4807062490860FEF74F
:10229000C9FF054606E0FEF7C5FF401B022801D92D
:1022A0000320DDE65B48006800F480700028F2D06F
:1022B000207A554968310870A068A0B1FEF7B2FFD6
:1022C000054608E0FEF7AEFF401B41F28831884228
:1022D00001D90320C4E64C4868300068C0F34000D0
:1022E0000028EFD013E0FEF79DFF054608E0FEF75B
:1022F00099FF401B41F28831884201D90320AFE6A3
:10230000414868300068C0F340000028EFD1A06960
:1023100028B1A069012802D0A069022800D104E0F8
:1023200040F2CD112AA002F05DFBA069002873D015
:102330003548006800F00C0008286ED0A06902281B
:102340006CD1E06918B1E069B0F5800F00D104E00C
:102350004FF4EB711EA002F045FB206A3F2800D825
:1023600004E040F2D7111AA002F03CFB606A322868
:1023700004D3606AB0F5D87F00D804E04FF4EC7164
:1023800013A002F02FFBA06A022808D0A06A04283C
:1023900005D0A06A062802D0A06A082800D104E06F
:1023A00040F2D9110AA002F01DFBE06A042803D311
:1023B000E06A0F2800D804E04FF4ED7104A002F0A9
:1023C00011FB002011490866FEF72CFF05462DE0A1
:1023D0002E2E2F447269766572732F53544D33320B
:1023E000463478785F48414C5F4472697665722F55
:1023F0005372632F73746D3332663478785F68611B
:102400006C5F7263632E630008380240000047422D
:10241000800E4742007000405EE05BE045E0FEF762
:1024200001FF401B022801D9032019E62B48006850
:10243000C0F340600028F2D1D4E90701084347F611
:10244000C07292FAA2F2B2FA82F2616A9140084333
:102450000122A16AC2EB51014FF4403292FAA2F27A
:10246000B2FA82F2914008434FF0706292FAA2F2FF
:10247000B2FA82F2E16A914008431849091D0860E6
:10248000012017490866FEF7CDFE054606E0FEF777
:10249000C9FE401B022801D90320E1E50F4800686E
:1024A000C0F340600028F2D016E000200C49086616
:1024B000FEF7B8FE054606E0FEF7B4FE401B022814
:1024C00001D90320CCE505480068C0F3406000282E
:1024D000F2D101E00120C3E50020C1E5003802404F
:1024E000000047427047F8B50446206846682068F7
:1024F000856805F0400048B905F0010030B106F0EC
:10250000400018B12046216C8847F8BD05F0020054
:1025100030B106F0800018B12046616C8847F4E7BE
:1025200005F4B07000284BD006F02000002847D0FA
:1025300005F0400098B194F8510003280ED0606D6A
:1025400040F00400606500BF002000902068C06873
:10255000009020688068009000BF00E0D5E705F09B
:10256000200088B1606D40F00100606500BF002070
:1025700000902068806800902068006820F040008B
:102580002168086000BF00BF05F4807058B1606D1D
:1025900040F00800606500BF00200090206880685F
:1025A000009000BF00BF2068406820F0E000216874
:1025B0004860012084F851002046FFF793FFA4E70C
:1025C00000BFA2E710B504460CB9012010BD7A493E
:1025D0002068884207D079492068884203D078492A
:1025E0002068884200D104E04FF4867175A002F0A3
:1025F000F9F9606818B16068B0F5827F00D104E035
:1026000040F20D116FA002F0EDF9A06838B1A0689A
:10261000B0F5806F03D0A068B0F5004F00D104E0A2
:102620004FF4877167A002F0DDF9E068B0F5006F44
:1026300001D0E06800B904E040F20F1161A002F09F
:10264000D1F9A069B0F5007F05D0A06918B1A069E3
:10265000B0F5802F00D104E04FF4887159A002F04A
:10266000C1F9E069A0B1E069082811D0E06910283B
:102670000ED0E06918280BD0E069202808D0E06966
:10268000282805D0E069302802D0E069382800D138
:1026900004E040F211114BA002F0A4F9206A10B13D
:1026A000206A802800D104E04FF4897145A002F02F
:1026B00099F9606A10B1606A102800D104E040F214
:1026C000131140A002F08EF9606AA8B9206910B118
:1026D0002069022800D104E04FF48B7139A002F088
:1026E00081F9606910B16069012800D104E040F20D
:1026F000171134A002F076F9A06A18B1A06AB0F5FB
:10270000005F00D104E04FF48D712EA002F06AF951
:10271000A06AB0F5005F0BD1E06A20B1E06AB0F5C5
:10272000803F00D204E040F21D1126A002F05AF9C9
:1027300094F8510028B9002084F85000204600F099
:102740005DF8022084F851002068006820F0400005
:1027500021680860D4E901010843E1680843216960
:10276000084361690843218B01F400710843E16962
:102770000843216A0843A16A0843216808600421CC
:10278000A06901EA1040616A084321684860A06AB4
:10279000B0F5005F02D12168E06A08612068C06975
:1027A00020F400602168C86100206065012084F881
:1027B000510000200AE700000030014000380040CE
:1027C000003C00402E2E2F447269766572732F53A1
:1027D000544D3332463478785F48414C5F447269D7
:1027E0007665722F5372632F73746D33326634784B
:1027F000785F68616C5F7370692E630010B586B096
:10280000044615492068884224D100BF002000906A
:102810001248006840F4805010490860084600687B
:1028200000F48050009000BF00BFE0200190022023
:1028300002900020039004900520059001A908480B
:10284000FEF796FA002205212320FFF757F82320F0
:10285000FFF720F806B010BD0030014044380240B8
:102860000000024010B50446042C00D004B904E076
:1028700040F2B3110BA002F0B5F8042C08D14FF0D0
:10288000E020006940F004004FF0E021086107E01B
:102890004FF0E020006920F004004FF0E0210861D3
:1028A00010BD00002E2E2F447269766572732F536F
:1028B000544D3332463478785F48414C5F447269F6
:1028C0007665722F5372632F73746D33326634786A
:1028D000785F68616C5F636F727465782E63000067
:1028E00070B504462546681EB0F1807F01D30120F3
:1028F0000FE0681E4FF0E02148610F214FF0FF30DC
:1029000000F09EFF00204FF0E02188610720086161
:10291000002070BD7047F8B50446002500262068E9
:10292000006800F001052068C06800F480767DB181
:1029300076B100BF002000902068006800902068F9
:102940004068009000BF00BFE06B40F00100E06312
:1029500020680068C0F340052068406900F0010667
:102960007DB176B100BF0020009020680068009023
:1029700020684068009000BF00BFE06B40F004009A
:10298000E06320680068C0F380052068406900F0BB
:1029900001067DB176B100BF00200090206800687C
:1029A000009020684068009000BF00BFE06B40F0DE
:1029B0000200E06320680068C0F3C0052068406939
:1029C00000F001067DB176B100BF002000902068C4
:1029D0000068009020684068009000BF00BFE06B76
:1029E00040F00800E06320680068C0F340152068EC
:1029F000C06800F020061DB116B1204601F050F865
:102A000020680068C0F3C0152068C06800F0800628
:102A10001DB116B1204601F09FFA20680068C0F38E
:102A200080152068C06800F040061DB116B1204630
:102A300001F026F8E06B38B1202084F8390084F8E2
:102A40003A002046FFF766FFF8BD000010B50446C7
:102A50000CB9012010BDA069002828D04749206882
:102A600088420BD046492068884207D045492068F3
:102A7000884203D044492068884200D103E0FB210A
:102A800042A001F0AFFFA06958B1A069B0F5807F06
:102A900007D0A069B0F5007F03D0A069B0F5407FF2
:102AA00000D122E0FC2139A001F09CFF1DE0334958
:102AB0002068884213D03249206888420FD03149BB
:102AC000206888420BD040492068884207D03F499F
:102AD0002068884203D02C492068884200D104E055
:102AE0004FF4807129A001F07DFFA06818B1A068A3
:102AF000B0F5805F00D104E04FF4817123A001F0B4
:102B000071FFE06918B1E069B0F5004F00D104E051
:102B100040F203111DA001F065FF94F8390028B9B7
:102B2000002084F83800204600F052F8242084F871
:102B300039002068C06820F400502168C860204631
:102B400001F002F82068006920F4904021680861D3
:102B50002068406920F02A00216848612068C06828
:102B600040F400502168C8600020E063202084F811
:102B7000390084F83A0000206CE7000000100140A2
:102B80000044004000480040001401402E2E2F4415
:102B90007269766572732F53544D333246347878A8
:102BA0005F48414C5F4472697665722F5372632FA0
:102BB00073746D3332663478785F68616C5F756109
:102BC00072742E6300000000004C00400050004072
:102BD00010B586B0044670492068884226D100BFEF
:102BE000002000906D48006840F400206B490860A8
:102BF0000846006800F40020009000BF00BF0320DA
:102C000001900220029001200390032004900820EC
:102C1000059001A96248FEF7ABF800220A21342092
:102C2000FEF76CFE3420FEF735FEB2E05D49206809
:102C3000884248D100BF002000905848006840F406
:102C40000030564908600846006800F400300090E3
:102C500000BF00BF0C2001900220029001200390D1
:102C6000032004900720059001A94D48FEF780F845
:102C70004D484E4908604FF00060486000214B48C5
:102C80008160C1604FF48061016100214161816117
:102C9000C1614FF4803101620421416203218162EC
:102CA0000021C1620163FDF7E9FE00BF3F48606398
:102CB000846300BF00220A212620FEF71FFE262083
:102CC000FEF7E8FD65E03A492068884235D100BF4B
:102CD000002000903148006840F480202F490860AF
:102CE0000846006800F48020009000BF00BFC814B0
:102CF00001900220029001200390032004900720FD
:102D0000059001A92B48FEF733F84FF4807001902D
:102D100002200290012003900320049007200590D8
:102D200001A92548FEF724F800220A212720FEF7F2
:102D3000E5FD2720FEF7AEFD2BE020492068884204
:102D400027D100BF002000901448001D006840F00B
:102D500020001249091D08600846006800F02000A4
:102D6000009000BF00BFC02001900220029001200F
:102D70000390032004900820059001A91048FDF756
:102D8000F7FF00220A214720FEF7B8FD4720FEF793
:102D900081FD06B010BD0000004C004040380240EC
:102DA0000000024000440040886002404C4B00207C
:102DB0000048004000040240000C024000140140A2
:102DC0000008024010B5034693F83A0020282FD19E
:102DD00001B10AB9012010BD00BF93F838000128E5
:102DE00001D10220F7E7012083F8380000BF996283
:102DF0009A85DA850020D863222083F83A00186883
:102E0000C06840F480701C68E0601868406940F059
:102E100001001C68606100BF002083F8380000BF1B
:102E20001868C06840F020001C68E0600020D2E70D
:102E30000220D0E770472DE9F04104460D461646C2
:102E4000984694F83900202855D105B116B90120CB
:102E5000BDE8F08100BF94F83800012801D10220BC
:102E6000F6E7012084F8380000BF0020E06321204D
:102E700084F83900A684E68428E0E08C401EE084D3
:102E8000A068B0F5805F14D143460022802120461F
:102E900001F096F808B10320DAE72F463888C0F32E
:102EA000080021684860206908B9AD1C0EE06D1C5F
:102EB0000CE0434600228021204601F081F808B151
:102EC0000320C5E715F8010B21684860E08C002855
:102ED000D3D1434600224021204601F071F808B1C9
:102EE0000320B5E7202084F8390000BF002084F8D3
:102EF000380000BFACE70220AAE7704700BFFEE73A
:102F000010B50248FEF796F910BD0000B049002048
:102F100010B50248FEF736FA10BD0000B049002097
:102F200070B50446608D032824D1E06A042806D0D9
:102F3000E06A082803D0E06A10F5803F0FD1E06A0C
:102F4000022806D02068006820F4806021680860AC
:102F500005E02068006840F480602168086020680F
:102F60000069C1B2626A501C60621170608D401EBF
:102F7000608569E0608D02285CD1E06A04281FD07A
:102F8000E06A08281CD0E06A10F5803F18D0E06A9B
:102F9000022806D02068006820F48060216808605C
:102FA00005E02068006840F480602168086094F8BB
:102FB0003D0000F0030594F83E002843206307E03D
:102FC000122020632068006840F4007021680860C7
:102FD00020680069C1B2626A501C60621170608D25
:102FE000401E608520680069C1B2626A501C606240
:102FF0001170608D401E60852068406820F440702C
:103000002168486094F83E00402809D1202084F8C7
:103010003D00002084F83E002046FEF796FB13E0BA
:10302000202084F83D00002084F83E002046FEF772
:103030008AFB09E020680069C1B2626A501C6062C4
:103040001170608D401E6085002070BD70B5044613
:103050000025658D032D0AD920680069C1B2626A16
:10306000501C60621170608D401E608563E0022D0F
:1030700001D0032D1CD1E06A02280CD02068006822
:1030800020F48060216808602068006840F40060D7
:103090002168086005E02068006840F480602168CD
:1030A00008602068406820F480602168486042E041
:1030B000E06A022806D02068006820F48060216859
:1030C000086005E02068006840F4806021680860BE
:1030D0002068406820F4E06021684860206800694A
:1030E000C1B2626A501C60621170608D401E6085C2
:1030F00094F83E0040280FD13034607B00F0030587
:10310000A07B28432060202060730020A073303C07
:103110002046FEF71AFB0EE03034607B00F003051A
:10312000A07B28432060202060730020A073303CE7
:103130002046FEF708FB002070BD70B50446608D88
:1031400048B1616A481C6062087821680861608D36
:10315000401E608548E0E06A04281ED0E06A082826
:103160001BD0E06A10F5803F17D02068406820F43B
:10317000E0602168486094F83D0000F0030594F891
:103180003E0028432063002084F83E00202084F87D
:103190003D002046FEF7D8FA26E02068406820F47B
:1031A000E060216848602068006840F40070216891
:1031B000086094F83E0040280BD1002020632020B6
:1031C00084F83D00002084F83E002046FEF7BEFA59
:1031D0000AE000202063202084F83D00002084F8CD
:1031E0003E002046FEF7B0FA002070BD0146488D33
:1031F00030B90868406820F480600A68506008E0D0
:103200004A6A501C486210780A681061488D401E56
:103210004885002070470146488D48B1086800691C
:10322000C2B24B6A581C48621A70488D401E4885CD
:103230000020704770B50446608D18B3206800699F
:10324000C1B2626A501C60621170608D401E608560
:10325000608DB8B994F83D002A2813D120684068E1
:1032600020F480602168486094F83D0000F0030578
:1032700094F83E0028432063282084F83D0020462F
:10328000FEF7A4FA002070BD0146488D40B14A6A9D
:10329000501C486210780A681061488D401E4885AD
:1032A0000020704770B50446608D10B3616A481CF9
:1032B0006062087821680861608D401E6085608DBD
:1032C000B8B994F83D00292813D12068406820F44B
:1032D00080602168486094F83D0000F0030594F890
:1032E0003E0028432063282084F83D002046FEF756
:1032F0006EFA002070BD70B50446002500262068D7
:103300008069C0F3800000B9012520688069C0F39E
:10331000C01010B9A08986B201E0208B86B2324677
:1033200029462046FDF784FF002070BD70B5044695
:10333000E06A042802D0E06A082821D194F83D0010
:1033400028281DD12548E0622068406820F4E0600C
:10335000216848606FF480602168486120680068D7
:1033600020F480602168086000202063202084F819
:103370003D00002084F83E002046FEF7E3F92BE0F4
:1033800094F83D00212823D11448E06294F83D00D0
:1033900000F0030594F83E0028432063202084F8C1
:1033A0003D00002084F83E002068406820F4E06082
:1033B000216848606FF48060216848612068006877
:1033C00020F48060216808602046FEF700FA03E0E0
:1033D0006FF4806021684861002070BD0000FFFF2D
:1033E00038B504462068406820F4E06021684860F1
:1033F00000BF0020009020684069009020680068AD
:1034000040F001002168086000BF00BF206800682C
:1034100020F480602168086094F83D0000F02800E6
:1034200028280DD11048E06200202063202084F875
:103430003D00002084F83E002046FEF783F911E0AD
:10344000206B222803D094F83D0022280AD10020C6
:103450002063202084F83D00002084F83E002046B0
:10346000FEF7B4F9002038BD0000FFFF08B500BF2B
:10347000002000900A48006840F4001008490860E5
:103480000846006800F40010009000BF00BF002252
:1034900005211020FEF732FA1020FEF7FBF908BDD7
:1034A0003038024000B587B000BF002001908A4844
:1034B000006840F01000884908600846006800F085
:1034C0001000019000BF00BF00BF0020019008461F
:1034D000006840F0040008600846006800F004003E
:1034E000019000BF00BF00BF0020019008460068A7
:1034F00040F0800008600846006800F080000190FD
:1035000000BF00BF00BF002001900846006840F0E7
:10351000010008600846006800F00100019000BF4B
:1035200000BF00BF002001900846006840F0020084
:1035300008600846006800F00200019000BF00BF6C
:1035400000BF002001900846006840F008000860B5
:103550000846006800F00800019000BF00BF00228C
:1035600008215E48FDF724FE002201215C48FDF79A
:103570001FFE00224FF210015A48FDF719FE0820E5
:1035800002900120039000200490059002A9534866
:10359000FDF7EEFB012002900390002004900590BF
:1035A00002A94F48FDF7E4FB082002900220039097
:1035B0000020049005900520069002A94848FDF7D8
:1035C000D7FB102002900220039000200490059069
:1035D0000620069002A94448FDF7CAFB0420029089
:1035E00000200390049002A94048FDF7C1FB4FF46E
:1035F0008060029002200390002004900590052036
:10360000069002A93948FDF7B3FB4FF21000029073
:103610000120039000200490059002A93148FDF795
:10362000A7FB4FF40070029002200390002004904A
:103630000590069002A92A48FDF79AFB4FF4807086
:10364000029002200390002004900590069002A9A9
:103650002548FDF78DFB4FF4C060029002200390D7
:1036600000200490032005900720069002A91E4820
:10367000FDF77EFB4FF4C050029002200390002023
:10368000049005900A20069002A91748FDF770FBE8
:103690004FF4A05002900220039000200490059067
:1036A0000620069002A90E48FDF762FB202002903A
:1036B00000200390049002A90A48FDF759FB02205C
:1036C00002900B4803900020049002A90348FDF7E4
:1036D0004FFB07B000BD0000303802400010024030
:1036E00000080240000C02400000024000040240BA
:1036F0000000121010B50A480A4908600A484860DC
:10370000002108488160C1604FF4804101610021BF
:1037100041618161C1610162FDF7F0FE10BD0000F1
:1037200000540040B0490020A086010010B50C48AC
:103730000C4908604FF4827048600021094881609C
:10374000C160016141614FF4007181610021C1617B
:103750000162416281620A21C162FEF733FF10BD3E
:1037600000300140F449002010B5094809490860BB
:103770004FF4E1304860002106488160C16001617A
:103780000C21416100218161C161FFF75FF910BD2A
:10379000004C00404C4A002010B509480949086017
:1037A0004FF4E1304860002106488160C16001614A
:1037B0000C21416100218161C161FFF747F910BD12
:1037C000004400408C4A002010B5094809490860AF
:1037D0004FF4E1304860002106488160C16001611A
:1037E0000C21416100218161C161FFF72FF910BDFA
:1037F00000480040CC4A002010B50948094908603B
:103800004FF4E1304860002106488160C1600161E9
:103810000C21416100218161C161FFF717F910BDE1
:10382000001401400C4B002000BFFEE77047000071
:1038300002480068C0F30220704700000CED00E071
:1038400010B5002807DA0A07140E054A00F00F0326
:103850001B1FD45403E00A07130E024A135410BD71
:1038600018ED00E000E400E07047000010B50248E9
:10387000FEF739FE10BD0000F44900201421204855
:10388000FCF719FD4FF481711E48FCF714FD00BFD1
:103890004FF4FA611C48006801F0A8FB00282BD106
:1038A0001A488088002823DD184882880388801DF4
:1038B00019180A231648FFF7BEFA1448008813495E
:1038C000898808441149088008468088001A888041
:1038D00008460088B0F5007F0ADD642310220DA1A0
:1038E0000B48FFF7A8FA0020084948800880888024
:1038F0000548006801F052FB642001F018FBC7E79F
:10390000A44B0020903D00207C0000209841002026
:103910008C4A002055617274322052656164204FD8
:1039200076657220666C6F770A00000010B5FDF7AF
:103930004FFF01F091FB10BD10B592B000BF002009
:1039400000902F48006840F080502D4908600846DC
:10395000006800F08050009000BF00BF00BF002052
:1039600000902848006840F48040264908600846D6
:10397000006800F48040009000BF00BF0220069065
:103980000120099010200A9002200C9000210D9136
:1039900008210E91A8210F91022110910721119168
:1039A00006A8FEF723FB0F200190022002900020C2
:1039B00003904FF4A05004904FF4805005900521DF
:1039C00001A8FEF749F8002211461046FEF756FA04
:1039D000002211460120FEF751FAFEF7ADF94FF42F
:1039E0007A71B0FBF1F42046FEF77AFF0420FEF76F
:1039F00039FF00220F21501EFDF780FF12B010BDCD
:103A000040380240007000401448006840F47000E4
:103A1000124908601248006840F00100104908602F
:103A200000200F49083108600D4800680D49084022
:103A30000B4908600C48091D0860081F006820F445
:103A40008020091F0860002005490C3108604FF0F4
:103A500000600249803908607047000088ED00E08E
:103A600000380240FFFFF6FE1030002410B5034876
:103A7000FEF751FF02F060F810BD00004C4A002034
:103A800010B504462068C06820F040002168C86076
:103A9000202084F839002046FFF72FFA002010BDBF
:103AA00070B5044694F83A0022284AD1A068B0F5CF
:103AB000805F13D1A56A206940B920684068C0F3CF
:103AC00008002880A06A801CA06219E02068406875
:103AD000C0B22880A06A401CA06211E0206938B9F9
:103AE00020684068C1B2A26A501CA062117007E051
:103AF0002068406800F07F01A26A501CA06211702B
:103B0000E08D401E80B2E085C8B92068C06820F012
:103B100020002168C8602068C06820F48070216897
:103B2000C8602068406920F00100216848612020B9
:103B300084F83A002046FFF77DF9002070BD002090
:103B4000FCE70220FAE700002DE9F04104460025D9
:103B5000EF496068884200D204E040F2DD61EDA0E8
:103B600000F040FFE06818B1E068B0F5005F00D1F8
:103B700004E040F2DE61E7A000F034FF206938B1D4
:103B80002069B0F5806F03D02069B0F5C06F00D117
:103B900004E040F2DF61DFA000F024FF4FF6F37194
:103BA0006069084010B9606900B104E04FF4DC615D
:103BB000D8A000F017FF2068056925F44055E0689B
:103BC0000543206805612068C56849F20C6085439B
:103BD0002169A068084361690843E1690843054316
:103BE0002068C5602068456925F44075A0690543D3
:103BF00020684561E069B0F5004F7CD1D449206868
:103C0000884203D0D349206888425DD1FEF7C6F8C8
:103C100000EBC00101EB001061684900B0FBF1F05E
:103C20006421B0FBF1F00601FEF7B8F800EBC0012B
:103C300001EB001061684900B0FBF1F7FEF7AEF848
:103C400000EBC00101EB001061684900B0FBF1F02E
:103C50006421B0FBF1F000EBC00101EB0010A7EB19
:103C60008000322101EBC0006421B0FBF1F000F0D4
:103C7000F80006EB4006FEF791F800EBC00101EBFF
:103C8000001061684900B0FBF1F7FEF787F800EB20
:103C9000C00101EB001061684900B0FBF1F0642144
:103CA000B0FBF1F000EBC00101EB0010A7EB8000CE
:103CB000322101EBC0006421B0FBF1F000F00700FD
:103CC00030442168886020E1FEF752F800EBC00123
:103CD00001EB001061684900B0FBF1F06421B0FB1A
:103CE000F1F00601FEF744F800EBC00101EB001013
:103CF0006168490000E047E0B0FBF1F7FEF738F8F3
:103D000000EBC00101EB001061684900B0FBF1F06D
:103D10006421B0FBF1F000EBC00101EB0010A7EB58
:103D20008000322101EBC0006421B0FBF1F000F013
:103D3000F80006EB4006FEF71BF800EBC00101EBB4
:103D4000001061684900B0FBF1F7FEF711F800EBD5
:103D5000C00101EB001061684900B0FBF1F0642183
:103D6000B0FBF1F000EBC00101EB0010A7EB80000D
:103D7000322101EBC0006421B0FBF1F000F007003C
:103D8000304421688860C0E071492068884203D0CF
:103D90007049206888425CD1FEF700F800EBC00152
:103DA00001EB001061688900B0FBF1F6FDF7F6FF4A
:103DB00000EBC00101EB001061688900B0FBF1F07D
:103DC0006421B0FBF1F000EBC00101EB0010A6EBA9
:103DD0008000322101EB00106421B0FBF1F000F013
:103DE000F006FDF7DBFF00EBC00101EB001061689E
:103DF0008900B0FBF1F06421B0FBF1F006EB001696
:103E0000FDF7CCFF00EBC00101EB001061688900F9
:103E1000B0FBF1F7FDF7C2FF00EBC00101EB0010B2
:103E200061688900B0FBF1F06421B0FBF1F000EBB8
:103E3000C00101EB0010A7EB8000322101EB001064
:103E40006421B0FBF1F000F00F003044216888607D
:103E50005BE0FDF78DFF00EBC00101EB0010616836
:103E60008900B0FBF1F6FDF783FF00EBC00101EB29
:103E7000001061688900B0FBF1F06421B0FBF1F043
:103E800000EBC00101EB0010A6EB8000322101EB3A
:103E900000106421B0FBF1F000F0F006FDF768FFC0
:103EA00000EBC00101EB001061688900B0FBF1F08C
:103EB0006421B0FBF1F006EB0016FDF759FF00EBB3
:103EC000C00101EB001061688900B0FBF1F7FDF75C
:103ED0004FFF00EBC00101EB001061688900B0FBEF
:103EE000F1F06421B0FBF1F000EBC00101EB001038
:103EF000A7EB8000322101EB00106421B0FBF1F050
:103F000000F00F00304421688860BDE8F0810000B7
:103F1000A137A0002E2E2F447269766572732F533D
:103F2000544D3332463478785F48414C5F4472696F
:103F30007665722F5372632F73746D3332663478E3
:103F4000785F68616C5F756172742E6300000000B9
:103F50000010014000140140014691F83900212869
:103F60002CD18868B0F5805F0FD10A6A1088C0F341
:103F700008000B685860086918B9086A801C086254
:103F800009E0086A401C086205E00B6A581C0862D8
:103F900018780B685860C88C401E80B2C88458B925
:103FA0000868C06820F080000B68D8600868C068A6
:103FB00040F040000B68D860002070470220FCE70A
:103FC0002DE9F04104460E4617461D464FF0000805
:103FD000FDF728F9804677BB2FE0681C60B32DB150
:103FE000FDF720F9A0EB0800A84226D92068C06898
:103FF00020F080002168C8602068C06820F02000A0
:104000002168C8602068C06820F480702168C8609A
:104010002068406920F0010021684861202084F870
:10402000390084F83A0000BF002084F8380000BF4F
:104030000320BDE8F0810BE0FFE720680068304016
:10404000B04201D1012000E000200028C5D037E0B7
:104050002CE0681C50B32DB1FDF7E4F8A0EB08008C
:10406000A84223D92068C06820F080002168C86079
:104070002068C06820F020002168C8602068C068FF
:1040800020F480702168C8602068406920F0010039
:1040900021684861202084F8390084F83A0000BF84
:1040A000002084F8380000BF0320C2E720680068C1
:1040B0003040B04201D1012000E000200028C8D1EA
:1040C0000020B6E710B50348FEF725FC01F020FC00
:1040D00010BD00008C4A002010B50348FEF71BFC01
:1040E00001F04EFC10BD0000CC4A002010B5034882
:1040F000FEF711FC01F006FE10BD00000C4B002085
:1041000000BFFEE737B514460846064B6A4621460F
:1041100000F0CCF804466946002000F05EFC204622
:104120003EBD0000DB49000802E008C8121F08C1BC
:10413000002AFAD170477047002001E001C1121F28
:10414000002AFBD1704700002DE9FF5FDDE9022066
:10415000010DDDF838B0024318D044F61050A1F23A
:10416000FF3141430D140F98012820D0A5EB0B001F
:10417000401C5FEA000A4FF00004474EDFF81C9134
:10418000A046504616D5CAF1000728E00F98012432
:1041900043A2012808D0002100980F9BC0E900210C
:1041A000C0E90243BDE8FF9F6FEA0B01F4E7CBF1E2
:1041B0000000DEE7074612E0F80707D02246334644
:1041C00040464946FCF777F9804689462246334601
:1041D00010461946FCF76FF904460E467F10002F73
:1041E000EAD1DDE90201BAF1000F42464B4602DA9C
:1041F000FCF761F901E0FCF7D0F904460E46002215
:10420000284BFCF751FA03D84FF0FF30014607E086
:104210000022254B20463146FCF7A6F8FCF72CFA85
:10422000102409E0002C0ADB0A220023FCF76BF8BB
:10423000019B30321A55641E50EA0102F2D1641C0F
:10424000019AC4F1110314440F9A012A03D00122E8
:1042500008430DD10AE0084304D000204FF0110BB1
:104260000F9080E7A3EB0B056D1E0DE05B4504DDB1
:104270004FF0000205F1010504E003DA4FF00002FF
:10428000A5F10105002AECD000980F99C0E9023190
:10429000C0E9004586E70000000024400000F03F30
:1042A000300000000000F0430000E03F2DE9FF4F28
:1042B00095B09B468946064600250FE2252877D112
:1042C00000242746F84A0121059400E0044316F82B
:1042D000013F203B01FA03F01042F7D130782A2841
:1042E00011D06FF02F033078A0F13002092A16D8D0
:1042F000059A44F0020402EB820203EB42021044EE
:10430000761C0590EFE759F8042B0592002A03DA92
:10431000504244F40054059044F00204761C307876
:104320002E2816D116F8010F44F004042A280DD0C7
:104330006FF02F023078A0F13003092B09D807EB7A
:10434000870302EB4303C718761CF3E759F8047B95
:10435000761C30786C280FD006DC4C2817D06828E3
:104360000DD06A2814D104E0742810D07A280FD117
:104370000DE044F400140AE044F4801401E044F435
:1043800040147278824202D104F58014761C761CA7
:10439000307866280BD013DC582877D009DC002849
:1043A00075D04528F6D04628F4D047281AD19DE18B
:1043B00018E0632835D0642879D0652812D195E1BA
:1043C000702873D008DC6728F1D069286FD06E2878
:1043D0000DD06F2806D1B5E073282CD0752875D084
:1043E000782874D05A46179990476D1C75E1C4F32C
:1043F0000250022809D003280DD0D9F80010042853
:104400000DD00D6009F1040967E1D9F80010EA1731
:10441000C1E90052F6E7D9F800100D80F2E70D70FF
:10442000F0E719F8041B8DF8001000208DF801004A
:10443000EA46012003E059F804AB4FF0FF30610772
:104440004FF0000102D40DE008F101018846B942A5
:104450000FDA8045F8DB1AF808100029F4D108E0DB
:1044600008F1010188468142FADB1AF80810002998
:10447000F6D105985B46A0EB080721463846179A07
:1044800000F094FA284400EB080507E04DE029E12C
:104490000DE01AF8010B5A4617999047B8F1010838
:1044A000F7D25B4621463846179A13E142E00A22CA
:1044B0000092C4F302524FF0000A022A08D059F8C1
:1044C00004CB032A4FEAEC710AD00DE029E02AE080
:1044D00009F1070121F00702F2E802C1914609E063
:1044E0000FFA8CFC4FEAEC71042A03D14FFA8CFCD2
:1044F0004FEAEC71002907DA0A460021DCF1000CD2
:1045000061EB02012D2202E0220504D52B228DF859
:104510000420012203E0E20701D02022F7E79046C1
:1045200059E00A2102E010220DE010214FF0000AAC
:1045300000910BE010224FF0000A44F00404082719
:10454000009203E008224FF0000A0092C4F30252E6
:10455000022A05D059F804CB0021032A08D009E02B
:1045600009F1070121F00702F2E802C1914605E0D6
:104570001FFA8CFC042A01D10CF0FF0C4FF000084C
:10458000220728D5702806D0009B83F0100353EA39
:104590000A0305D00EE040228DF80420012208E035
:1045A0005CEA010206D030228DF804208DF8050067
:1045B00002229046009B83F0080353EA0A030AD1C3
:1045C0005CEA010201D1620705D530228DF8042092
:1045D0004FF001087F1E582804D034A003900EA885
:1045E00002900DE036A0F9E753466046009AFBF7CB
:1045F0008AFE84460398825C0298401E02900270F4
:104600005CEA0100F0D1029806A9081A00F1200A1C
:10461000600702D524F4803400E00127574502DD0D
:10462000A7EB0A0000E0002000EB0A0100900598CB
:104630004144401A0590E00306D45B462146179A90
:10464000059800F0B3F90544002706E001A85A4692
:10465000C05D179990476D1C7F1C4745F6DBE00352
:104660000CD55B462146179A059800F09FF9054442
:1046700004E030205A46179990476D1C0099481E57
:1046800000900029F5DC08E0029802995A4600786B
:10469000491C0291179990476D1CBAF10001AAF1CB
:1046A000010AF1DC65E100000928010030313233F4
:1046B000343536373839616263646566000000005E
:1046C0003031323334353637383941424344454648
:1046D0000000000000F058F90544761C30780028EE
:1046E0007FF4ECAD19B02846BDE8F08F620700D426
:1046F000062709F1070222F0070CFCE80223E14635
:1047000003F000485FEA080C02D00FF2702C0DE0B5
:104710005FEA045C02D50FF2682C07E05FEAC47C14
:1047200002D00FF2602C01E0AFF2700C4FF0FF38B6
:1047300023F00043CDF850C065280CD006DC452896
:1047400009D046281DD047283DD13DE0662818D025
:1047500067287ED138E00021112F01DB112000E015
:10476000781CCDE9000106A90EA8FFF7EDFCDDE9F4
:104770000F010E9A03910021009207F1010A0491A2
:104780004DE04FF000400097CDE9011006A90EA8BA
:10479000FFF7DAFCDDE90F0203920E9B119900226C
:1047A000DDF80CA00093049211B9791C00EB010A0A
:1047B000B7EB0A0004D4C0F1FF3007F1010A0490FE
:1047C000AAEB0700019044E0012F00DA0127002145
:1047D000112F01DD112000E03846CDE9000106A9C6
:1047E0000EA8FFF7B1FCDDE90F010E9A039100213D
:1047F00004910092BA4621070CD40399514500DA7E
:104800008A46BAF1010F05DD009AAAF10101515C57
:10481000302908D0B84202DA10F1040F06DA01217B
:10482000CDE9011015E0AAF10101E9E7002805DC56
:10483000049901440491AAEB000102E0411C514596
:1048400000DD8A460499401A401C01904FF0004058
:104850000290200704D40198504501DBCDF8048074
:1048600000208DF84F0002980DF14F07B0F1004F76
:1048700025D02B200E9002984FF0020800280CDA69
:10488000404202902D200E9007E00A210298FBF78B
:1048900024FD3031029007F8011DB8F10001A8F1A4
:1048A0000108F2DC02980028EFD1791E0E980870FA
:1048B000307800F0200040F0450007F8020D12A803
:1048C000C01B00F107081498007800B1012000EB2C
:1048D0000A01019801EBE07105984144401A401E1D
:1048E0000590E00306D45B462146179A059800F030
:1048F0005DF805441498007818B15A461799904706
:104900006D1CE00324D55B462146179A059800F0FC
:104910004DF805441CE00498002807DBDDE903019D
:10492000884203DD0098405C179901E01799302018
:104930005A469047049805F10105401C04900198DF
:10494000401E019004D12E205A46179990476D1CA5
:10495000BAF10001AAF1010ADDDC05E017F8010B4C
:104960005A46179990476D1CB8F10001A8F101084B
:10497000F4DC5B462146179A0598ABE62D00000053
:104980002B000000200000002DE9F0410446002526
:104990001E461746880404D405E039462020B04757
:1049A0006D1C641EF9D52846BDE8F0812DE9F04163
:1049B000044600251E469046C80301D5302700E076
:1049C0002027880404D505E041463846B0476D1CD1
:1049D000641EF9D52846BDE8F0810A68531C0B60B7
:1049E0001070704770B504460D462B46224602A152
:1049F000002000F057FB70BD57726F6E672070612A
:104A000072616D65746572732076616C75653A20AC
:104A100066696C65202573206F6E206C696E652059
:104A200025640D0A0000000070B504460D460026FE
:104A3000FF222946204601F0BDF80646304670BDEB
:104A400070B504460D4600262946204601F03AF985
:104A50000646304670BD70B504460D460026294610
:104A6000204600F0F0F8C6B270B270BD00BF1FA1C2
:104A7000002000F037FB24A1002000F033FB40F2BF
:104A800006212748FBF717FC4FF481712548FBF7F7
:104A900012FC00BF2348801C23A10A6802604968F9
:104AA000416008201F49088008460188801C00F0EA
:104AB00043F81C49881CFFF7CEFFC0B2012810D173
:104AC0001848008800280CDD164802880A23811C3B
:104AD0001848FEF7B0F913480288811C002000F046
:104AE00095FB4FF4FA7000F022FAD3E76574685F23
:104AF0007461736B2069732072756E6E696E6720C6
:104B00002E2E2E0A000000005B494E464F5D4D6F71
:104B100064756C65204C616E2C20576966690A00CB
:104B2000AA470020964000204869204C616E2E0A5A
:104B3000000000000C4B002070B504460D46002616
:104B40002946204600F08BF8C6B270B270BD70B531
:104B500004460D4600262946204602F031FBC6B227
:104B600070B270BD00BF1DA1002000F0BBFA21A1F2
:104B7000002000F0B7FA40F206212348FBF79BFB28
:104B80004FF481712148FBF796FB00BF1F48801C42
:104B90001FA10A6802604A684260097A017209200E
:104BA0001A49088008460188801C00F039F8174926
:104BB000881CFFF7CCFFC0B201280AD11348008837
:104BC000002806DD114802880A23811C1348FEF7DD
:104BD00032F94FF4FA7000F0AAF9D7E767775F74FB
:104BE00061736B2069732072756E6E696E67202E1B
:104BF0002E2E0A005B494E464F5D4D6F64756C6505
:104C000020584265650A00009E430020923E002025
:104C1000486920584265652E0A000000CC4A0020F1
:104C200070B504460D4600262946204602F0D4FA07
:104C3000C6B270B270BD00BFEFF3058008B10120AD
:104C400070470020FCE770B504460D460026FF22A1
:104C50002946204601F094F80646304670BD70B5EE
:104C600004460D4600262946204601F011F9064665
:104C7000304670BD9CB0FCF7B3FDFEF75DFEFEF75D
:104C800011FCFEF7F3FBFEF787FDFEF79DFDFEF737
:104C90004DFDFEF72FFDFEF7AFFDFEF765FD504819
:104CA0000068C06840F020004D490968C8604D4860
:104CB0000068C06840F020004A490968C8604A4856
:104CC0000068C06840F0200047490968C86047484C
:104CD0000068C06840F0200044490968C86040F29C
:104CE00006214348FBF7E7FA40F206214148FBF76B
:104CF000E2FA40F206214048FBF7DDFA40F20621D5
:104D00003E48FBF7D8FA364800F07AFA00F0E2FDA8
:104D100000201B901BA800F024F9394908600020EE
:104D20001A901AA800F01DF9364908600020199061
:104D3000012119A800F01BF93349086000201890E0
:104D4000012118A800F013F93049086014223049F5
:104D500013A8FBF797FA002113A800F085F92D4955
:104D6000086014222A4914310EA8FBF78BFA00219F
:104D70000EA800F079F92849086014222449283146
:104D800009A8FBF77FFA002109A800F06DF9234973
:104D9000086014221E493C3104A8FBF773FA002175
:104DA00004A800F061F91E4908601949503103C98F
:104DB000CDE90201002102A800F0CAF819490860F3
:104DC0001349583103C9CDE900010021684600F0BC
:104DD000BFF81549086000F0B6F800BFFEE7000014
:104DE0008C4A0020CC4A00204C4A00200C4B00206A
:104DF000984100209E430020A4450020AA4700209F
:104E000074000020780000207C000020800000203A
:104E1000F07100085C0000206000002064000020A9
:104E2000680000206C000020700000200146002077
:104E3000842901D0CA1C1044704770B504460D4641
:104E4000002629462046FFF7EFFDC6B270B270BDBE
:104E500000BF1CA1002000F045F922A1002000F0B5
:104E600041F940F206212548FBF725FA4FF48171FC
:104E70002348FBF720FA00BF0E2222A12048801C05
:104E8000FBF700FA0E201E49088008460188801CA6
:104E900000F042F81A49881CFFF7CFFFC0B2012882
:104EA0000AD117480088002806DD154802880A2321
:104EB000811C1848FDF7BFFF4FF4FA7000F037F877
:104EC000DAE700006F66666C696E655F7461736B2C
:104ED0002069732072756E6E696E67202E2E2E0A01
:104EE000000000005B494E464F5D4D6F64756C6578
:104EF00020426C7565746F6F74680A00A4450020C9
:104F0000943F0020486920426C7565746F6F746827
:104F10002E0A00004C4A002070B504460D460026BB
:104F200029462046FFF78CFDC6B270B270BD70B541
:104F3000044625460DB1294600E00121084601F04E
:104F4000EFF8002070BD10B501F0E4F9002010BDAD
:104F500070B504460D460022D4E9000101F04AFB79
:104F600070BD10B50446012001F012FB10BD70B5F4
:104F700006460D46012D0ED103220021012001F02D
:104F800039FB04462CB100231A461946204601F08D
:104F900097FC204670BD0020FCE7000038B50446B1
:104FA000002500200090FFF746FE90B1694620469C
:104FB00001F056FD012801D0FF2038BD009888B1CE
:104FC0004FF0805008490860BFF34F8FBFF36F8FD9
:104FD00008E000231A461946204601F071FC01281A
:104FE00000D0FF252846E8E704ED00E0F8B50646C6
:104FF0000C46002000900EB98020F8BD0025601CF2
:1050000008B96D1E03E014B1254605B90125FFF767
:1050100012FE98B16A460021304601F08CFD01284D
:1050200001D0FF20E9E7009890B14FF08050094986
:105030000860BFF34F8FBFF36F8F09E000232A464C
:105040001946304601F01CFB012801D0FF20D4E7AF
:105050000020D2E704ED00E010B501F0C9FE012800
:1050600001D001F07BFA10BD70B586B004460D4644
:10507000B4F90800FFF7DAFE0646002005AACDE9DC
:10508000012000960390238A9AB22B46D4E900109F
:1050900001F0F6FD012802D0002006B070BD059891
:1050A000FBE700000FB470B5C2B00646002548A863
:1050B000019002A8019A4799FFF724F802A8FBF78C
:1050C00005F984B20A23224602A905480068FDF7C3
:1050D000B2FE0020019042B070BC5DF814FB0000ED
:1050E0008C0000200FB4F0B5C1B0074600254FF486
:1050F000FA6111480068FFF779FF061E17D148A82A
:10510000009001A8009A4799FEF7FCFF01A8FBF761
:10511000DDF884B20A23224601A908480068FDF799
:105120008AFE0020009004480068FFF737FF41B076
:10513000F0BC5DF814FB00007C0000208C00002017
:105140002DE9F04707460D4691464A4625A1002025
:10515000FFF7A8FF3E4600240CE0327823A1002090
:10516000FFF7A0FF761C072C03D121A10020FFF739
:1051700099FF641CAC42F0DB082D03DA1CA100206F
:10518000FFF790FF102D0ADAC5F11008002404E0A3
:1051900015A10020FFF786FF641C4445F8DB12A12F
:1051A0000020FFF77FFF3E46002413E0FBF766F880
:1051B00000683178405C00F03E0028B132780DA1E3
:1051C0000020FFF76FFF03E00BA10020FFF76AFF4D
:1051D000761C641CAC42E9DB08A10020FFF762FFEB
:1051E000BDE8F08725303564202020002530327856
:1051F00020000000256300002E0000000D0A0000C2
:1052000001490860704700008C0000202DE9F05F24
:1052100088461446254610264FF00009C2464FF432
:10522000FA611B480068FFF7E1FEB0F1000B2DD1D9
:10523000002C05DC16480068FFF7B0FEBDE8F09FC3
:10524000B44209DC4A4621465046FFF779FF104830
:105250000068FFF7A3FEF1E700BF96FBF5F005FB42
:1052600010674A4639465046FFF76AFFED1BBA44BD
:10527000B144B542F1DC4A4629465046FFF760FF8B
:1052800000BF00BF02480068FFF788FE00BFD5E7F7
:105290007C00002010B504460E48006844600E48AB
:1052A0000068844207D20B480168091D0B4800685A
:1052B00000F032FE0CE007480168091D084800684C
:1052C00000F02AFE07480068844201D205480460C5
:1052D00010BD000024000020380000202C00002019
:1052E00028000020540000202DE9F04105460F461B
:1052F0001FB9A80000F02CFA00E03846064656B167
:105300005C2000F025FA04460CB1266304E0304628
:1053100000F070FE00E0002424B1A900A522206B5B
:10532000FAF7C2FF2046BDE8F081000070B523E027
:1053300001F028F81348006808B9012000E00020B7
:10534000054601F0BBFEBDB900F00CFE0D48C0687B
:10535000C468201D00F0BCFD0B480068401E0A49CF
:1053600008600A480068401E0849086000F024FEF2
:10537000204600F062F800BF044800680028D7D13A
:1053800070BD0000683D0020340000203000002087
:1053900070B504460D46206C70B1216CE06808447D
:1053A000E0606168E068884201D32068E0602846D8
:1053B000226CE168FAF766FF70BD2DE9F041044602
:1053C0000E4615460027206C40B9206878BB6068FF
:1053D00001F0C4FD07460020606028E07DB9314639
:1053E000226CA068FAF74EFF216CA0680844A06008
:1053F000D4E9011088421AD32068A06017E0314632
:10540000226CE068FAF73EFF216CE068401AE06029
:105410002168E068884203D2216C6068401AE0602D
:10542000022D04D1A06B10B1A06B401EA063A06B35
:10543000401CA0633846BDE8F08110B50446206BDF
:1054400000F0D8FD204600F0D5FD10BD30B54FF47A
:105450007053174800F007042CB1C01D20F007005E
:10546000134C041B1B1B0246124C22600024114DDE
:105470006C60D018083820F007000F4C2060002422
:105480000D4D2D686C600C4D2D682C601146441A32
:105490004C60094C24680C60084D4C682C60084D29
:1054A0004C682C604FF00044064D2C6030BD00006D
:1054B000A0000020000000200800002010000020B4
:1054C0000C0000201400002000BFFFF72FFF06484B
:1054D00000680128F9D94FF0805004490860BFF3F3
:1054E0004F8FBFF36F8FF0E7A03C002004ED00E08A
:1054F0002DE9F04704460F4615469946DDF8208011
:10550000002607E0B95D04F134008155B85D00B9AB
:1055100002E0761C102EF5D300BF00214320015578
:10552000072D00D30625E562E56400202065201DD7
:1055300000F0EFFC04F1180000F0EBFC2461C5F171
:105540000700A06164620020606584F85800BDE82F
:10555000F087000010B5002407E004EB84010F4A37
:1055600002EB810000F0C8FC641C072CF5D30C484A
:1055700000F0C2FC0B4800F0BFFC0B4800F0BCFC84
:105580000A4800F0B9FC0A4800F0B6FC0448094992
:10559000086004480849086010BD0000A03C0020D5
:1055A0002C3D0020403D0020543D0020683D00205F
:1055B0007C3D0020280000202C00002010B5014672
:1055C000164800E0006803688B42FBD3024643683C
:1055D00013448B4204D143684C6823444360014622
:1055E0000A464B6813440468A34211D10C4C03686B
:1055F0002468A34208D04B680468646823444B6065
:1056000003681B680B6005E0054B1B680B6001E03D
:1056100003680B60884200D0016010BD00000020CC
:105620000800002070B5054600F09CFCA86B08B986
:10563000012400E0002400F0BFFC204670BD70B5DE
:10564000054600F08FFCA86BE96B884201D101246C
:1056500000E0002400F0B0FC204670BD0A49096853
:10566000096809B9012100E0002121B14FF0FF31A3
:10567000064A116006E004490968C968C868034A17
:10568000416811607047000028000020540000208D
:105690000E480068401C08B9012000E0002050B905
:1056A00000BF502080F31188BFF34F8FBFF36F8F7F
:1056B00000BF00BFFEE700BF502080F31188BFF39A
:1056C0004F8FBFF36F8F00BF00BFFEE718000020B1
:1056D00010B5044600F046FC11E0606A08B90120EC
:1056E00000E0002038B904F1240001F09BFC18B15F
:1056F00000F05CFD00E005E0A06C401EA064A06C22
:105700000028EADC00BF4FF0FF30A06400F054FC3A
:1057100000F028FC11E0206908B9012000E0002019
:1057200050B904F1100001F07DFC08B100F03EFD1D
:10573000606C401E606400E002E0606C0028EADCFF
:1057400000BF4FF0FF30606400F036FC10BD000079
:105750002DE9F04104464FF0000800F013FE4648E2
:10576000006808B9FFF772FE44480068204000282E
:105770006BD1D4B1083404F00700B0B104F00700D5
:10578000C0F10800044404F0070008B9012000E05B
:10579000002050B900BF502080F31188BFF34F8F15
:1057A000BFF36F8F00BF00BFFEE7002C4DD0344821
:1057B0000068844249D8334E3046056801E02E46E1
:1057C0002D686868A04202D228680028F7D12A48CC
:1057D0000068854239D0306800F1080828683060D8
:1057E0006868001B102819D92F1907F0070008B99D
:1057F000012000E0002050B900BF502080F3118844
:10580000BFF34F8FBFF36F8F00BF00BFFEE7686825
:10581000001B78606C603846FFF7D0FE1849686856
:105820000968081A16490860084600681649096898
:10583000884203D212480068134908600F4968681B
:105840000968084368600020286001F037FC08F010
:10585000070008B9012000E0002050B900BF502027
:1058600080F31188BFF34F8FBFF36F8F00BF00BF6E
:10587000FEE74046BDE8F08108000020140000204B
:105880000C000020000000201000002006480068E6
:1058900030B10549096801F15000096D491C0160EA
:1058A000014800687047000024000020001F4FF0EE
:1058B00080730360001F0160001F054B03601438F4
:1058C0000260001F6FF00203036020387047000081
:1058D0009156000810B564230B2205A10748FDF777
:1058E000AAFA64230B2206A10848FDF7A4FA10BD0A
:1058F000696E69742D75617274320A008C4A0020D9
:10590000696E69742D75617274330A00CC4A002087
:1059100010B5012212491348FDF754FAF8B912489C
:105920008088B0F5007F0FDA0D4801780E48428874
:105930004088401C0C4B5880981D8154801F8088E3
:10594000401C194688800AE06423102207A10548FC
:10595000FDF771FA0020044948800880888010BD56
:10596000CC4B00208C4A0020984100205561727475
:1059700032204F76657220666C6F770A0000000057
:1059800010B5012212491348FDF71CFAF8B9124864
:105990008088B0F5007F0FDA0D4801780E48428804
:1059A0004088401C0C4B5880981D8154801F808873
:1059B000401C194688800AE06423102207A105488C
:1059C000FDF739FA0020044948800880888010BD1E
:1059D00090000020CC4A00209E4300205561727444
:1059E00033204F76657220666C6F770A00000000E6
:1059F0002DE9F04106460C46154600274FF4FA61A2
:105A000034480068FFF7F2FAB0F100085ED132487E
:105A10008088002856DD002D2CDD2F488088A84284
:105A200028DB2D480288801D11182A463046FAF7D7
:105A300029FC2948808820802748008826498988B1
:105A400008442549088008468088001A8880012774
:105A500008460088B0F5007F34DD642310221FA1C2
:105A60002448FDF7E8F900201B4948800880888019
:105A7000002727E0184882880388801D19183046BF
:105A8000FAF700FC144880882080134800881249E7
:105A9000898808441049088008468088001A888050
:105AA000012708460088B0F5007F0BDD6423102233
:105AB0000AA11048FDF7BFF9002007494880088077
:105AC0008880002703480068FFF768FA3846BDE879
:105AD000F08100007C0000209E430020556172741C
