:020000020000FC
:0E0000000C9468340C9400000C9400000C94D6
:10000E0000000C9400000C9400000C9400000C9462
:10001E0000000C9400000C9400000C9400000C9452
:10002E0000000C94B6400C9400000C9400000C944C
:10003E00C7400C9400000C9400000C9400000C942B
:10004E0000000C94C3400C9400000C9400000C941F
:10005E00BF400C9400000C94623E0C9400000C9473
:10006E0000000C9400000C9400000C9400000C9402
:10007E0000000C9400000C9400000C9400000C94F2
:10008E00E0400C94843F0C9400000C9400000C94FF
:10009E0000000C9400000C9400000C9400000C94D2
:1000AE0000000C9400000C94FC400C9400000C9486
:1000BE0000000C9400000C9400000C9400000C94B2
:1000CE00903F0C9400000C9400000C94AE3F0C94E6
:1000DE0000000C940000694E542D4554482D302ECE
:1000EE00323462000000A0C200008CC2000070C258
:1000FE00000048C2000020C20000F0C10000A0C1F4
:10010E00000020C100000000000020410000A041BE
:10011E000000F04100002042000048420000704202
:10012E0033639143FA859A43055CA34379E9AB4364
:10013E003732B443A039BC430F03C4437F91CB4342
:10014E00ABE7D2431008DA43FBF4E0438DB0E7434C
:10015E00C63CEE43999BF443B5CEFA43E64C000001
:10016E00E74C0000F34C0000FE4C00000B4D00006D
:10017E00164D0000214D0000314D00003B4D00009A
:10018E00444D0000564D0000694D00007A4D0000B0
:10019E00894D00009A4D0000AA4D000024434D44A5
:1001AE005344540024434D445241530024434D4480
:1001BE00434C460024434D445356520024434D4471
:1001CE00534E530024434D4444454E0024434D4466
:1001DE004444530024434D4453534E0024434D4452
:1001EE0052534E0020222A2B2C5B3D5D7C7F00005B
:1001FE0000000000000000000000000000000000F1
:10020E000000000000000000000000000000FFFFE2
:10021E00FFFF0D0A2D2D2D2D2D2D20496E69746990
:10022E00616C20436F6D706C657465202D2D2D2DC6
:10023E002D2D0D0A00436F6E74616374203A206396
:10024E006F6E746163742E746177616E40676D6159
:10025E00696C2E636F6D0D0A003C6D61696E3E20F8
:10026E0067657453656E736F72436F6E6669672848
:10027E00256429206572726F720D0A003C6D6169EA
:10028E006E3E2061646453656E736F724461746177
:10029E0051756575652825642C252E3166292066D5
:1002AE0061696C65640D0A003C6D61696E3E207576
:1002BE007064617465537461747573282920666166
:1002CE00696C65640D0A003C6D61696E3E206F704D
:1002DE0065726174696E67206D6F646520657272F8
:1002EE006F722121205B3078253032585D0D0A0067
:1002FE003C6D61696E3E2053445F726561644D656D
:10030E006D6F727952656D61696E2829206661691B
:10031E006C65640D0A003C6D61696E3E205B446540
:10032E00766963652064697361626C655D205B54F8
:10033E005950452D4B5D2024434D44534E53204E72
:10034E00203A20582E5858202020202020202020CF
:10035E0020202020202020202020200D003C6D6118
:10036E00696E3E205B4465766963652064697361DE
:10037E00626C655D205B545950452D4B5D202443C6
:10038E004D44534E53202564203A202566202020CC
:10039E00202020202020202020202020202020204F
:1003AE0020200D003C6D61696E3E205B44657669D0
:1003BE0063652064697361626C655D205B5459509E
:1003CE00452D4B5D2024434D44534E532025642030
:1003DE003A20646973636F6E6E6563746564202082
:1003EE002020202020202020200D003C6D61696EF1
:1003FE003E205B4465766963652064697361626C57
:10040E00655D205B544D45435D202020202020203B
:10041E0020202020202020202020202020202020CE
:10042E0020202020202020202020202020202020BE
:10043E000D003C6D61696E3E205B446576696365B7
:10044E002064697361626C655D205B50543130309D
:10045E005D20202020202020202020202020202051
:10046E00202020202020202020202020202020207E
:10047E00202020202020200D003C6D61696E3E2042
:10048E005B4465766963652064697361626C655D62
:10049E00205B52455345525645445D202020202076
:1004AE00202020202020202020202020202020203E
:1004BE0020202020202020202020202020200D0061
:1004CE003C7570646174655374617475733E204538
:1004DE0054485F7273745F74696D65722074696DD0
:1004EE0065206C656674203D20256C6428256C584B
:1004FE00290D0A000D0A3C6576656E7443617074B1
:10050E007572653E202121212121212121212121C8
:10051E00204D6F6E69746F72204D6F6465202121BE
:10052E002121210D0A000D0A3C6576656E7443612A
:10053E0070747572653E20212121212121212121F6
:10054E002121204D61696E74656E616E636520496F
:10055E006E2050726F6772657373202121212121E5
:10056E000D0A003C6576656E744361707475726534
:10057E003E206164644576656E74517565756528B7
:10058E0029206661696C65640D0A000D0A3C65766A
:10059E00656E74436170747572653E202121212150
:1005AE0021212121212121204D61696E20506F775B
:1005BE00657220446F776E2021212121210D0A00C2
:1005CE000D0A3C6576656E74436170747572653E96
:1005DE00202121212121212121212121204D61694B
:1005EE006E20506F776572205570202121212121B8
:1005FE000D0A000D0A3C6576656E74436170747564
:10060E0072653E202121212121212121212121201C
:10061E0042617474657279204C6F772021212121FB
:10062E00210D0A000D0A3C6576656E744361707487
:10063E007572653E20212121212121212121212197
:10064E002042617474657279204F4B202121212143
:10065E00210D0A000D0A3C6576656E744361707457
:10066E007572653E20212121212121212121212167
:10067E00204D656D6F7279204C6F772021212121DD
:10068E00210D0A000D0A3C6576656E744361707427
:10069E007572653E20212121212121212121212137
:1006AE00204D656D6F7279204572726F7220212117
:1006BE002121210D0A000D0A3C6576656E74436199
:1006CE0070747572653E2021212121212121212165
:1006DE002121204D656D6F7279204F4B20212121F4
:1006EE0021210D0A000D0A3C6576656E744361701A
:1006FE00747572653E202121212121212121212184
:10070E00212044696E20256420526973696E67202A
:10071E0021212121210D0A000D0A3C6576656E749A
:10072E00436170747572653E2021212121212121A2
:10073E00212121212044696E2025642046616C6CA4
:10074E00696E672021212121210D0A000D0A3C65C9
:10075E0076656E74436170747572653E2021212139
:10076E0021212121212121212050524F4245202596
:10077E006420444953434F4E4E454354202121217A
:10078E0021210D0A00414C3132253164000D0A3C05
:10079E006576656E74436170747572653E202121B5
:1007AE002121212121212121212050524F4245205A
:1007BE00256420434F4E4E454354202121212121B3
:1007CE000D0A00414C3032253164000D0A3C65762D
:1007DE00656E74436170747572653E20212121210E
:1007EE00212121212121212050524F4245202564D3
:1007FE002054656D70657261747572652045525234
:10080E004F522021212121210D0A000D0A3C65762F
:10081E00656E74436170747572653E2021212121CD
:10082E00212121212121212050524F424520256492
:10083E002054656D7065726174757265204F4B2022
:10084E0021212121210D0A003C73746174757352AC
:10085E0065706F72743E205245504F52545F53492B
:10086E004E474C45206D6F6465206E6F7420737516
:10087E0070706F72746564207965740D0A003C7334
:10088E0074617475735265706F72743E2052455068
:10089E004F52545F4D554C5449504C45206D6F642A
:1008AE0065206E6F7420737570706F72746564203E
:1008BE007965740D0A003C737461747573526570BA
:1008CE006F72743E206D616C6C6F63206661696C33
:1008DE00656420282564206279746573290D0A00E9
:1008EE003C7374617475735265706F72743E2067D9
:1008FE00657444657669636553746174652829204F
:10090E006661696C65640D0A003C7374617475737D
:10091E005265706F72743E207374617475732072B9
:10092E0065706F7274206163636D20756E6B6E6F90
:10093E00776E205B3078253032585D0D0A003C739F
:10094E0074617475735265706F72743E20455448AD
:10095E005F73656E645374617475735265706F72F4
:10096E0074436D642829206661696C65640D0A0004
:10097E003C73656E736F72446174615265706F7211
:10098E00743E205B256C645D5B25645D5B252E32B9
:10099E00665D0D0A000D0A3C73656E736F724461DD
:1009AE0074615265706F72743E203D3D3D2045521C
:1009BE00524F5220494E464F4D4154494F4E2049B9
:1009CE004E2054454D50205155455545203D3D3DF9
:1009DE000D0A003C73656E736F72446174615265EB
:1009EE00706F72743E204554485F73656E64446147
:1009FE0074615265706F7274436D6428292066614C
:100A0E00696C65640D0A003C6576656E745265709E
:100A1E006F72743E205B256C645D5B3078253032DE
:100A2E00585D5B3078253032585D0D0A000D0A3C5A
:100A3E006576656E745265706F72743E203D3D3DF5
:100A4E00204552524F5220494E464F4D4154494F28
:100A5E004E20494E2054454D502051554555452068
:100A6E003D3D3D0D0A003C6576656E745265706FB6
:100A7E0072743E204554485F73656E644576656EAC
:100A8E00745265706F7274436D64282920666169B3
:100A9E006C65640D0A003C73656E736F724461740D
:100AAE0061536176653E2074696D655B256C645D8E
:100ABE002C63685B25645D2C76616C5B252E32663B
:100ACE005D0D0A000D0A3C73656E736F724461749E
:100ADE0061536176653E203D3D3D204552524F5259
:100AEE0020494E464F4D4154494F4E20494E2054B9
:100AFE00454D50205155455545203D3D3D0D0A0073
:100B0E003C73656E736F7244617461536176653EBA
:100B1E00204C4F475F6F70656E46696C6528257374
:100B2E0029206661696C65642C20636F756C646E38
:100B3E0027742073617665206C6F670D0A003C7315
:100B4E00656E736F7244617461536176653E204CBD
:100B5E004F475F696E736572744461746128292012
:100B6E006661696C65640D0A003C73656E736F7225
:100B7E0044617461536176653E204C4F475F636CF0
:100B8E006F736546696C652829206661696C6564BA
:100B9E000D0A003C73656E736F724461746153612C
:100BAE0076653E2044617461204C6F672069732026
:100BBE006E6F7420656D7074790D0A003C657665F4
:100BCE006E74536176653E2074696D655B256C6449
:100BDE005D2C69645B3078253032585D2C737461FE
:100BEE00745B3078253032585D0D0A000D0A3C6575
:100BFE0076656E74536176653E203D3D3D204552CF
:100C0E00524F5220494E464F4D4154494F4E204966
:100C1E004E2054454D50205155455545203D3D3DA6
:100C2E000D0A003C6576656E74536176653E204C08
:100C3E004F475F6F70656E46696C65282573292076
:100C4E006661696C65642C20636F756C646E2774C5
:100C5E002073617665206C6F670D0A003C657665C2
:100C6E006E74536176653E204C4F475F696E7365B7
:100C7E0072744576656E742829206661696C6564A8
:100C8E000D0A003C6576656E74536176653E204CA8
:100C9E004F475F636C6F736546696C6528292066E4
:100CAE0061696C65640D0A003C6576656E7453610E
:100CBE0076653E204576656E74204C6F67206973AD
:100CCE00206E6F7420656D7074790D0A003C6C6F28
:100CDE00675265706F72743E20436865636B204483
:100CEE00617461204C6F672045786973740D0A003A
:100CFE003C6C6F675265706F72743E204C4F475F4D
:100D0E006F70656E46696C6528257329206661696A
:100D1E006C65640D0A003C6C6F675265706F72747F
:100D2E003E204C4F475F72656164446174612825B3
:100D3E007329206661696C65640D0A003C6C6F67EF
:100D4E005265706F72743E204C4F475F72656164DE
:100D5E00446174612829204C6F6720656D70747929
:100D6E000D0A000D0A3C6C6F675265706F72743E0F
:100D7E00203D3D3D204552524F5220494E464F4D4B
:100D8E004154494F4E20494E202573203D3D3D0D87
:100D9E000A003C6C6F675265706F72743E2044613E
:100DAE0074614C6F6720666F756E642074696D6533
:100DBE005B256C645D2C63685B25645D2C76616CD1
:100DCE005B252E32665D0D0A003C6C6F67526570B6
:100DDE006F72743E204554485F73656E644461744F
:100DEE00615265706F7274436D6428292066616963
:100DFE006C65640D0A003C6C6F675265706F72749F
:100E0E003E20446174614C6F672073656E7420667A
:100E1E0072616D6549445B3078253032585D206CC7
:100E2E006F6749445B3078253032585D0D0A003CBF
:100E3E006C6F675265706F72743E204C4F475F63E4
:100E4E006C6F736546696C652829206661696C65EF
:100E5E00640D0A003C6C6F675265706F72743E20B1
:100E6E00436865636B204576656E74204C6F672012
:100E7E0045786973740D0A003C6C6F675265706F2C
:100E8E0072743E204C4F475F726561644576656EA5
:100E9E00742829206661696C65640D0A003C6C6FCC
:100EAE00675265706F72743E204C4F475F7265617A
:100EBE00644576656E742829204C6F6720656D70C9
:100ECE0074790D0A003C6C6F675265706F72743ED8
:100EDE00204576656E744C6F6720666F756E642064
:100EEE0074696D655B256C645D2C69645B30782577
:100EFE003032585D2C737461745B30782530325803
:100F0E005D0D0A003C6C6F675265706F72743E2007
:100F1E004554485F73656E644576656E74526570B0
:100F2E006F7274436D642829206661696C65640D67
:100F3E000A003C6C6F675265706F72743E20457686
:100F4E00656E744C6F672073656E74206672616D8A
:100F5E006549445B3078253032585D206C6F6749A7
:100F6E00445B3078253032585D0D0A003C6C6F675B
:100F7E005265706F72743E204C4F475F636C6F7397
:100F8E006546696C6528257329206661696C656400
:100F9E000D0A00000D0A506F7765722D6F6E20528C
:100FAE00657365740D0A000D0A45787465726E617D
:100FBE006C2052657365740D0A000D0A42726F77CC
:100FCE006E2D6F75742052657365740D0A000D0ACF
:100FDE005761746368646F672052657365740D0A98
:100FEE00000D0A4A5441472052657365740D0A007C
:100FFE003C696E697469616C5F73797374656D3E7B
:10100E00204C4F475F696E69742829206661696CB0
:10101E0065640D0A003C696E697469616C5F737971
:10102E007374656D3E2053445F696E697428292080
:10103E006661696C65640D0A00496E697469616C5C
:10104E002044657669636520436F6D706C657465C9
:10105E0064206174202D2000253034642D2530321B
:10106E00642D2530326420253032643A25303264C6
:10107E003A253032640D0A000D0A21212121212149
:10108E002121212121212121212121212121212142
:10109E002121212121212121212121212121212132
:1010AE000D0A002121212121212120457468204291
:1010BE007566666572204F766572666C6F77202155
:1010CE00212121212121212100003C54494D45524D
:1010DE005F73657454696D65723E204552523A20B5
:1010EE00706572696F64203D20300D0A003C5449D2
:1010FE004D45525F73657454696D65723E20626131
:10110E007365436F756E7465725B256C645D202B21
:10111E0020706572696F645B256C645D203D2025CF
:10112E006C64204F564552464C4F5721210D0A00F4
:10113E003C5744543E205761746368446F67205493
:10114E00696D657220526573657421210D0A000068
:10115E00FFFF3C494F5F6B6579436865636B3E20CB
:10116E006B6579204D4F44450D0A003C494F5F6B2E
:10117E006579436865636B3E206B65792055500D2C
:10118E000A003C494F5F6B6579436865636B3E208F
:10119E006B657920444F574E0D0A003C494F5F6BEB
:1011AE006579436865636B3E206B6579204F4B0D07
:1011BE000A00496E697469616C697A696E672041CB
:1011CE0044432E2E20004F4B0D0A000063000000FA
:1011DE006300000063000000635F74696D655B254A
:1011EE006C645D202620735F74696D655B256C648D
:1011FE005D203D3E20646966665B256C645D0D0A6C
:10120E00003E3E205254435F73657442696E6172B4
:10121E0079205254432053796E632E0D0A003C52AE
:10122E0054435F7365744461746554696D653E2003
:10123E0054696D657A6F6E65206F7574206F6620C8
:10124E0072616E67652028252B64290D0A004D6F8B
:10125E006E2E20005475652E20005765642E2000DA
:10126E005468752E20004672692E20005361742E2C
:10127E00200053756E2E20005B25645D253034648E
:10128E002D253032642D2530326420253032643ADB
:10129E00253032643A253032640D0A0052756E6E76
:1012AE00696E6720776974682053797374656D2051
:1012BE00436C6F636B2040200000010001000101B0
:1012CE000101010001010101010101010101010101
:1012DE0001010101010101010100010001000100F4
:1012EE003C67657450726F70657274696573436F95
:1012FE006E6669673E206E6F20636F6E66696775F6
:10130E00726174696F6E2C207573652064656661F9
:10131E00756C740D0A003C6765744F70657261746C
:10132E00696E67436F6E6669673E206E6F20636FEE
:10133E006E66696775726174696F6E2C2075736560
:10134E002064656661756C740D0A003C6765744FA8
:10135E007065726174696E67436F6E6669673E2071
:10136E006D6F64652020202020202020202020204A
:10137E003E3E203078253032580D0A003C676574A9
:10138E004F7065726174696E67436F6E6669673E12
:10139E0020646576696365456E61626C6520202008
:1013AE00203E3E203078253032580D0A003C6765CD
:1013BE00744F7065726174696E67436F6E666967AC
:1013CE003E20616C61726D456E61626C65202020FD
:1013DE0020203E3E203078253032580D0A003C67E2
:1013EE0065744F7065726174696E67436F6E66697E
:1013FE00673E2073656E736F72456E61626C652019
:10140E002020203E3E20005B3078253032585D0093
:10141E003C67657453656E736F72436F6E66696772
:10142E003E2073656E736F72206368616E6E656CBD
:10143E00206F7574206F662072616E676520282597
:10144E0064290D0A003C67657453656E736F7243B1
:10145E006F6E6669673E206E6F20636F6E6669679A
:10146E0075726174696F6E2C207573652064656684
:10147E0061756C740D0A003C67657441757844693A
:10148E006E436F6E6669673E206469676974616C4E
:10149E0020696E707574206368616E6E656C206F66
:1014AE007574206F662072616E6765202825642929
:1014BE000D0A003C67657441757844696E436F6E22
:1014CE006669673E206E6F20636F6E666967757220
:1014DE006174696F6E2C2075736520646566617525
:1014EE006C740D0A003C676574417578446F7574B1
:1014FE00436F6E6669673E206469676974616C202C
:10150E006F7574707574206368616E6E656C206F94
:10151E007574206F662072616E67652028256429B8
:10152E000D0A003C676574417578446F7574436F9E
:10153E006E6669673E206E6F20636F6E66696775B3
:10154E00726174696F6E2C207573652064656661B7
:10155E00756C740D0A003C676574417578446F753F
:10156E0074436F6E6669673E202D2D2043482025FB
:10157E0064202D2D200D0A003C676574417578445A
:10158E006F7574436F6E6669673E20656E61626C3F
:10159E00652020202020202020205B30782530322E
:1015AE00585D0D0A003C676574417578446F75741B
:1015BE00436F6E6669673E2073746174654F6E4546
:1015CE0076656E742020205B3078253032585D0DA4
:1015DE000A003C676574417578446F7574436F6E8D
:1015EE006669673E206E756D6265724576537263ED
:1015FE00202020205B25645D2D3E003C67657441F4
:10160E00757841696E436F6E6669673E20616E61E3
:10161E006C6F6720696E707574206368616E6E659D
:10162E006C206F7574206F662072616E676520285E
:10163E002564290D0A003C67657441757841696E11
:10164E00436F6E6669673E206E6F20636F6E6669CC
:10165E006775726174696F6E2C2075736520646591
:10166E006661756C740D0A003C676574417578414E
:10167E006F7574436F6E6669673E20616E616C6F45
:10168E0067206F7574707574206368616E6E656C1B
:10169E00206F7574206F662072616E676520282535
:1016AE0064290D0A003C676574417578416F757445
:1016BE00436F6E6669673E206E6F20636F6E66695C
:1016CE006775726174696F6E2C2075736520646521
:1016DE006661756C740D0A003C67657442757A7AA2
:1016EE006572436F6E6669673E206E6F20636F6E24
:1016FE0066696775726174696F6E2C2075736520EB
:10170E0064656661756C740D0A003C67657442759C
:10171E007A7A6572436F6E6669673E20656E6162A6
:10172E006C652020202020202020202020203E3EDE
:10173E005B3078253032585D0D0A003C6765744287
:10174E00757A7A6572436F6E6669673E2065766557
:10175E006E74536F757263654E756D626572203E61
:10176E003E5B25645D0D0A003C67657442757A7AAE
:10177E006572436F6E6669673E206576656E74535B
:10178E006F75726365202020202020203E3E003C95
:10179E00676574456E76416C61726D436F6E6669F6
:1017AE00673E206E6F20636F6E6669677572617437
:1017BE00696F6E2C207573652064656661756C7437
:1017CE000D0A003C676574456E76416C61726D431F
:1017DE006F6E6669673E2067736D525353494C6551
:1017EE0076656C2020202020202020205B25665D41
:1017FE000D0A003C676574456E76416C61726D43EF
:10180E006F6E6669673E2067736D437265646974B7
:10181E0042616C616E636520202020205B25645D33
:10182E000D0A003C676574456E76416C61726D43BE
:10183E006F6E6669673E20626174746572794C657D
:10184E0076656C2020202020202020205B25665DE0
:10185E000D0A003C676574456E76416C61726D438E
:10186E006F6E6669673E20636F6D6D5369676E615B
:10187E006C4C6576656C2020202020205B25665DF3
:10188E000D0A003C676574456E76416C61726D435E
:10189E006F6E6669673E20636F6D6D4C6F73744437
:1018AE00656C617920202020202020205B25645D3E
:1018BE000D0A003C676574456E76416C61726D432E
:1018CE006F6E6669673E206D656D6F72794D696EDC
:1018DE002020202020202020202020205B25755D28
:1018EE000D0A003C676574537461747573526570AC
:1018FE006F7274436F6E6669673E206E6F20636F02
:10190E006E66696775726174696F6E2C207573658A
:10191E002064656661756C740D0A003C67657453CE
:10192E0074617475735265706F7274436F6E66690D
:10193E00673E206163636D20202020202020205BE5
:10194E003078253032585D0D0A003C67657453744B
:10195E00617475735265706F7274436F6E666967EA
:10196E003E20696E747620202020202020205B25CA
:10197E00645D0D0A003C7365744F70657261746925
:10198E006E67436F6E6669673E204572726F723A7C
:10199E00206F7065726174696E67206D6F6465206B
:1019AE00696E76616C6964205B3078253032585DE3
:1019BE000D0A000D0A206D6F646520202020202066
:1019CE002020202020203E3E203078253032580026
:1019DE000D0A20646576696365456E61626C6520EB
:1019EE002020203E3E20307825303258000D0A202F
:1019FE00616C61726D456E61626C652020202020E5
:101A0E003E3E20307825303258000D0A2073656E28
:101A1E00736F72456E61626C65202020203E3E2001
:101A2E00003C73657453656E736F72436F6E6669B7
:101A3E00673E204552523A206368616E6E656C2097
:101A4E006F7574206F662072616E67650D0A003CBB
:101A5E0073657453656E736F72436F6E6669673E1E
:101A6E00204552523A2073616D706C696E675261F7
:101A7E00746520636F756C646E27742062652073C5
:101A8E00657420746F20300D0A000D0A2073616D8D
:101A9E00706C696E6752617465202020203E3E2076
:101AAE00307825303458000D0A2072654F63637507
:101ABE007272656E6365202020203E3E20307825B0
:101ACE00303458000D0A2074696D65537461727458
:101ADE00486F75722020203E3E20307825303258D7
:101AEE00000D0A2074696D6553746172744D696ED0
:101AFE00202020203E3E20307825303258000D0A1E
:101B0E002074696D6553746F70486F757220202054
:101B1E00203E3E20307825303258000D0A20746960
:101B2E006D6553746F704D696E20202020203E3EEF
:101B3E0020307825303258000D0A206C6F77657290
:101B4E004C696D69742020202020203E3E202566A1
:101B5E00205B2530346C585D000D0A206C6F776564
:101B6E007244656C61792020202020203E3E202585
:101B7E0064205B253032585D000D0A206C6F77654E
:101B8E007245787472656D65202020203E3E2025BA
:101B9E0066205B2530346C585D000D0A2075707020
:101BAE0065724C696D69742020202020203E3E20F5
:101BBE002566205B2530346C585D000D0A2075704B
:101BCE0070657244656C61792020202020203E3E95
:101BDE00202564205B253032585D000D0A2075707B
:101BEE0070657245787472656D65202020203E3ECA
:101BFE00202566205B2530346C585D000D0A20636D
:101C0E0068616E6E656C2020202020202020203EF2
:101C1E003E205B25645D000D0A206368616E6E6573
:101C2E006C456E61626C652020203E3E203078252A
:101C3E00303258000D0A20616C61726D44656C6122
:101C4E00792020202020203E3E202564000D0A3CD5
:101C5E00736574417578446F7574436F6E6669670A
:101C6E003E204368616E6E656C204572726F722104
:101C7E00210D0A000D0A3C736574417578446F7529
:101C8E0074436F6E6669673E206576656E74536F3A
:101C9E00757263654E756D62657220697320746F1F
:101CAE006F206C6F6E67202825642921210D0A0094
:101CBE000D0A206368616E6E656C20202020202046
:101CCE0020202020203E3E205B25645D000D0A2052
:101CDE006368616E6E656C456E61626C6520202076
:101CEE0020203E3E20307825303258000D0A2073D9
:101CFE00746174654F6E4576656E742020202020C9
:101D0E00203E3E20307825303258000D0A20657670
:101D1E00656E74536F757263654E756D6265722074
:101D2E003E3E202564000D0A206576656E74536F65
:101D3E0075726365202020202020203E3E20000D5D
:101D4E000A20616C61726D4C6576656C20202020D6
:101D5E0020203E3E202564000D0A3C7365744175BB
:101D6E0078416F7574436F6E6669673E2043686194
:101D7E006E6E656C204572726F7221210D0A000D18
:101D8E000A3C736574417578416F7574436F6E6666
:101D9E0069673E206576656E74536F757263654E26
:101DAE00756D62657220697320746F6F206C6F6E33
:101DBE0067202825642921210D0A000D0A206C6553
:101DCE0076656C4F6E4576656E742020202020203F
:101DDE003E3E202566000D0A3C73657442757A7A84
:101DEE006572436F6E6669673E206576656E7453E5
:101DFE006F757263654E756D6265722069732074BE
:101E0E006F6F206C6F6E67202825642921210D0AC3
:101E1E00000D0A20656E61626C6520202020202056
:101E2E002020202020203E3E2030782530325800C1
:101E3E000D0A206576656E74536F7572636520208A
:101E4E0020202020203E3E000D0A2067736D525345
:101E5E0053494C6576656C20202020203E3E20257F
:101E6E0066206442000D0A2067736D4372656469D3
:101E7E007442616C616E6365203E3E202564204293
:101E8E00616874000D0A20626174746572794C6524
:101E9E0076656C20202020203E3E20256620566F41
:101EAE006C7473000D0A20636F6D6D5369676E61FC
:101EBE006C4C6576656C20203E3E20256620644283
:101ECE00000D0A20636F6D6D4C6F737444656C6109
:101EDE0079202020203E3E20256420736563000D6E
:101EEE000A206D656D6F72794D696E20202020205D
:101EFE002020203E3E202564204D422E000D0A203B
:101F0E006163636D20202020203E3E2025662064E4
:101F1E0042000D0A20696E747620202020203E3E5D
:101F2E002025642042616874003C6D61696E3E201C
:101F3E0067657453656E736F72436F6E666967285B
:101F4E00256429206572726F720D0A003C45544853
:101F5E005F73656E644E61636B3E2073656E64697C
:101F6E006E672E2E0D0A003C4554485F73656E64F5
:101F7E005374617475735265717565737441636BD7
:101F8E003E2073656E64696E672E2E0D0A003C4509
:101F9E0054485F73656E64537461747573526570E3
:101FAE006F7274436D643E206672616D654C656E32
:101FBE0020746F6F206C6F6E672028256420627905
:101FCE00746573290D0A003C4554485F73656E6451
:101FDE005374617475735265706F7274436D643EA1
:101FEE00206D616C6C6F63206661696C656420287E
:101FFE002564206279746573290D0A003C455448A6
:10200E005F73656E644576656E745265706F72743B
:10201E00436D643E2057726F6E67206576656E74F1
:10202E0054797065203078253032580D0A003C45C1
:10203E0054485F73656E644576656E745265706F55
:10204E007274436D643E206164644576656E744CB3
:10205E006F675175657565283078253032582C2597
:10206E006C642C3078253032582C3078253032582C
:10207E0029206661696C65640D0A003C4554485F11
:10208E0073656E644576656E745265706F727443D7
:10209E006D643E2073656E64696E672E2E0D0A00A8
:1020AE003C4554485F73656E64436F6E6669674D59
:1020BE00616E6167654E61636B3E2073656E646928
:1020CE006E672E2E0D0A003C4554485F73656E6494
:1020DE00436F6E6669674D616E61676541636B3E06
:1020EE00206672616D654C656E20746F6F206C6F2B
:1020FE006E6720282564206279746573290D0A00A5
:10210E003C4554485F73656E64436F6E6669674DF8
:10211E00616E61676541636B3E206D616C6C6F63D0
:10212E00206661696C656420282564206279746577
:10213E0073290D0A003C4554485F73656E64436F06
:10214E006E6669674D616E61676541636B3E2073B4
:10215E00656E64696E672E2E0D0A003C4554485F0D
:10216E0073656E64446174615265706F7274436D11
:10217E00643E2057726F6E6720646174615479708B
:10218E0065203078253032580D0A003C4554485FA2
:10219E0073656E64446174615265706F7274436DE1
:1021AE00643E20616464446174614C6F675175656F
:1021BE007565283078253032582C256C642C2575A1
:1021CE002C252E326629206661696C65640D0A0025
:1021DE003C4554485F73656E64446174615265702A
:1021EE006F7274436D643E2073656E64696E672E04
:1021FE002E0D0A003C4554485F73656E644C6F6744
:10220E004D616E6970756C6174696F6E41636B3E82
:10221E002073656E64696E672E2E0D0A003C455460
:10222E00485F73656E644E6574776F726B4D61694E
:10223E006E74656E616E636541636B3E2073656E91
:10224E0064696E672E2E0D0A003C4554485F726518
:10225E006D6F7465446576696365436F6E74726FF6
:10226E006C41636B3E2073656E64696E672E2E0D36
:10227E000A003C4554485F636C6561724475706C2E
:10228E00696361746552657175657374436D643EFF
:10229E002073656E64696E672E2E0D0A000D0A3C62
:1022AE004554485F636865636B507573684C6F6720
:1022BE003E203D3D3D204552524F5220494E464F05
:1022CE004D4154494F4E20494E2044415441204CDB
:1022DE004F47205155455545203D3D3D0D0A003C8B
:1022EE004554485F636865636B507573684C6F67E0
:1022FE003E20446174614C6F672074696D655B2587
:10230E006C645D2C63685B25645D2C76616C5B256B
:10231E002E32665D0D0A003C4554485F6368656366
:10232E006B507573684C6F673E204C4F475F6F70F4
:10233E00656E46696C6528257329206661696C6532
:10234E00642C20636F756C646E27742073617665E0
:10235E00206C6F670D0A003C4554485F63686563E7
:10236E006B507573684C6F673E204C4F475F696EBC
:10237E0073657274446174612829206661696C65A5
:10238E00640D0A003C4554485F636865636B507585
:10239E0073684C6F673E204C4F475F636C6F73657D
:1023AE0046696C652829206661696C65640D0A00B2
:1023BE003C4554485F636865636B507573684C6F3A
:1023CE00673E20496E736572746564204461746162
:1023DE00204C6F670D0A000D0A3C4554485F636838
:1023EE0065636B507573684C6F673E203D3D3D20B5
:1023FE004552524F5220494E464F4D4154494F4E31
:10240E0020494E204556454E54204C4F472051559D
:10241E00455545203D3D3D0D0A003C4554485F6302
:10242E006865636B507573684C6F673E20457665C3
:10243E006E744C6F672074696D655B256C645D2CE2
:10244E0069645B3078253032585D2C737461745B2F
:10245E003078253032585D0D0A003C4554485F6394
:10246E006865636B507573684C6F673E20496E7379
:10247E006572746564204576656E74204C6F670DC9
:10248E000A003C4554485F72657472616E736D69E3
:10249E00743E207061636B6574205B30782530323A
:1024AE00585D20457870697265640D0A003C45548C
:1024BE00485F72657472616E736D69743E207570DB
:1024CE0064617465206C6F67446174612074696D1A
:1024DE00656F75740D0A003C4554485F72657472E1
:1024EE00616E736D69743E20757064617465206CE5
:1024FE006F674576656E742074696D656F75740DC2
:10250E000A003C4554485F72657472616E736D6962
:10251E00743E20636F6D6D4C6F737454696D65728C
:10252E00203D20256C6428256C58290D0A003C4559
:10253E0054485F72657472616E736D69743E204C9F
:10254E006F737454696D65722074696D65206C6566
:10255E006674203D20256C6428256C58290D0A00D0
:10256E000D0A3C4554485F72657472616E736D69F5
:10257E00743E202D2D52657472616E736D69747484
:10258E00696E672D2D205B3078253032585D0D0A2F
:10259E00003C4554485F70726F636573735061639E
:1025AE006B65743E207374617475732072657175FA
:1025BE0065737420696E76616C6964206C656E67F4
:1025CE00746820282564290D0A003C4554485F7024
:1025DE00726F636573735061636B65743E207061D7
:1025EE00796C6F6164206D616C6C6F632829206655
:1025FE0061696C65640D0A003C4554485F70726FEA
:10260E00636573735061636B65743E20737461749C
:10261E007573526571756573745061727365722846
:10262E0029206661696C65640D0A000D0A2D2D73F3
:10263E0074617475735265717565737450617273DC
:10264E0065722D2D20434D44205B30782530325855
:10265E005D0D0A006163636573734D6574686F6425
:10266E00202020205B3078253032585D0D0A00691D
:10267E006E74657276616C20202020202020205BF5
:10268E003078253034585D203D2025640D0A0073C6
:10269E0074617475734C6973742020202020207C23
:1026AE0000253032587C000D0A2D2D202E2E446F21
:1026BE006E652E2E202D2D0D0A003C4554485F7060
:1026CE00726F636573735061636B65743E207374D0
:1026DE0061747573207265706F727420696E7661A5
:1026EE006C6964206C656E67746820282564290DFA
:1026FE000A000D0A2D2D7374617475735265706F17
:10270E0072745061727365722D2D2041434B205BA4
:10271E003078253032585D0D0A00756E697854692F
:10272E006D6520202020202020205B30782530323F
:10273E00585D5B3078253032585D5B30782530320D
:10274E00585D5B3078253032585D0D0A003C45549B
:10275E00485F70726F636573735061636B65743E2F
:10276E00206576656E74207265706F727420696E66
:10277E0076616C6964206C656E67746820282564C8
:10278E00290D0A000D0A2D2D6576656E7452657041
:10279E006F72745061727365722D2D2041434B2000
:1027AE005B3078253032585D0D0A003C4554485F49
:1027BE0070726F636573735061636B65743E2067EF
:1027CE006F74206576656E74206C6F672061636B25
:1027DE000D0A003C6C6F675265706F72743E204C30
:1027EE004F475F6F70656E46696C652825732920AB
:1027FE006661696C65640D0A003C4C4F475F7265FB
:10280E006164446174613E204C4F475F7365744C44
:10281E0061737453656E642829206661696C656402
:10282E000D0A003C4C4F475F7265616444617461F0
:10283E003E204C4F475F7365744C61737453656EE5
:10284E00642825732C256C64290D0A003C6C6F6777
:10285E005265706F72743E204C4F475F636C6F739E
:10286E006546696C6528257329206661696C656407
:10287E000D0A003C4554485F70726F636573735068
:10288E0061636B65743E20436F6E666967204D61B0
:10289E006E6167650D0A003C4554485F70726F6348
:1028AE006573735061636B65743E20636F6E66690A
:1028BE006775726174696F6E206D616E6167656DAB
:1028CE00656E7420696E76616C6964206C656E67E6
:1028DE00746820282564290D0A003C4554485F7011
:1028EE00726F636573735061636B65743E207061C4
:1028FE00796C6F6164206D616C6C6F63282564293F
:10290E00206661696C65640D0A003C4554485F7031
:10291E00726F636573735061636B65743E20636F92
:10292E006E6669674D616E6167655061727365723F
:10293E002829206661696C65640D0A000D0A2D2D2B
:10294E00636F6E6669674D616E6167655061727324
:10295E0065722D2D20434D44205B30782530325842
:10296E005D0D0A006163636420202020202020205A
:10297E00202020205B3078253032585D0D0A006310
:10298E006E66672020202020202020202020205B23
:10299E003078253032585D0D0A003C4554485F7042
:1029AE00726F636573735061636B65743E20676508
:1029BE0074436F6E6669674C656E2829206661697F
:1029CE006C65640D0A003C4554485F70726F636518
:1029DE0073735061636B65743E20636E66675264F9
:1029EE00206D616C6C6F632829206661696C65646B
:1029FE000D0A003C4554485F70726F6365737350E7
:102A0E0061636B65743E20636F6E666967526561C4
:102A1E00642829206661696C65640D0A003C455482
:102A2E00485F70726F636573735061636B65743E5C
:102A3E002052445F434D44203A204554485F73650D
:102A4E006E64436F6E6669674D616E616765416363
:102A5E006B2829206661696C65640D0A003C45543B
:102A6E00485F70726F636573735061636B65743E1C
:102A7E0020636E66675772206D616C6C6F632829D8
:102A8E00206661696C65640D0A003C4554485F70B0
:102A9E00726F636573735061636B65743E20636F11
:102AAE006E66696757726974652829206661696C5C
:102ABE0065640D0A005741524E203A203C45544859
:102ACE005F70726F636573735061636B65743E20E4
:102ADE0057525F434D44203A204554485F73656E0C
:102AEE0064436F6E6669674D616E61676541636BC6
:102AFE002829206661696C65640D0A003C455448BE
:102B0E005F70726F636573735061636B65743E20A3
:102B1E00636F6E666967436F6E6669726D282920F2
:102B2E006661696C65640D0A003C4554485F7072BD
:102B3E006F636573735061636B65743E20756E6B66
:102B4E006E6F776E207479706520666F7220636F7A
:102B5E006E6669672D3E61636364205B3078253055
:102B6E0032585D0D0A003C4554485F70726F6365C4
:102B7E0073735061636B65743E204461746120729F
:102B8E0065706F727420696E76616C6964206C6515
:102B9E006E67746820282564290D0A000D0A2D2DF4
:102BAE00646174615265706F727450617273657294
:102BBE002D2D2041434B205B3078253032585D0D52
:102BCE000A003C4554485F70726F636573735061C1
:102BDE00636B65743E20676F742064617461206C52
:102BEE006F672061636B0D0A003C4554485F70723D
:102BFE006F636573735061636B65743E206C6F67B2
:102C0E00206D616E6970756C6174696F6E202843FA
:102C1E004D442920696E76616C6964206C656E671F
:102C2E00746820282564290D0A003C4554485F70BD
:102C3E00726F636573735061636B65743E206C6F66
:102C4E00674D616E6970756C6174696F6E436D640A
:102C5E005061727365722829206661696C65640D16
:102C6E000A000D0A2D2D6C6F674D616E6970756CC3
:102C7E006174696F6E436D645061727365722D2D50
:102C8E0020434D44205B3078253032585D0D0A00CC
:102C9E007453746172742020202020202020202064
:102CAE005B256C645D0D0A007453746F70202020D8
:102CBE0020202020202020205B256C645D0D0A0042
:102CCE003C4554485F70726F636573735061636BFC
:102CDE0065743E207365744C6F674D616E697075D7
:102CEE006C617465536368656D612829206661693E
:102CFE006C65640D0A003C4554485F70726F6365E5
:102D0E0073735061636B65743E206C6F67206D61E9
:102D1E006E6970756C6174696F6E202841434B2922
:102D2E0020696E76616C6964206C656E67746820CC
:102D3E00282564290D0A000D0A2D2D6C6F674D6133
:102D4E006E6970756C6174696F6E41636B50617200
:102D5E007365722D2D2041434B205B307825303228
:102D6E00585D0D0A00737461747573202020202045
:102D7E0020202020205B256C645D0D0A003C45540C
:102D8E00485F70726F636573735061636B65743EF9
:102D9E00206E6574776F726B206D61696E74656EEF
:102DAE00616E636520696E76616C6964206C656E18
:102DBE0067746820282564290D0A003C4554485F35
:102DCE0070726F636573735061636B65743E206ED2
:102DDE006574776F726B4D61696E74656E616E634B
:102DEE00655061727365722829206661696C65642D
:102DFE000D0A000D0A2D2D6E6574776F726B4D6185
:102E0E00696E74656E616E63655061727365722D65
:102E1E002D20434D44205B3078253032585D0D0A0D
:102E2E0000636D64202020202020202020202020E0
:102E3E00205B3078253032585D0D0A006461746174
:102E4E004C656E2020202020202020205B25645DF4
:102E5E000D0A0064617461202D2D2D20202020206C
:102E6E002020200D0A002D2D2D2D2D2D2D2D0D0A5E
:102E7E00003C4554485F70726F63657373506163B5
:102E8E006B65743E2073657454696D6553796E631A
:102E9E00536368656D612829206661696C65640DF0
:102EAE000A005741524E203A203C4554485F7072FA
:102EBE006F636573735061636B65743E204E45544A
:102ECE00575F54494D455F53594E43203A20455460
:102EDE00485F73656E644E6574776F726B4D616992
:102EEE006E74656E616E636541636B282920666141
:102EFE00696C65640D0A003C4554485F70726F63DF
:102F0E006573735061636B65743E2072656D6F748B
:102F1E00652064657669636520636F6E74726F6C8D
:102F2E0020696E76616C6964206C656E67746820CA
:102F3E00282564290D0A003C4554485F70726F6362
:102F4E006573735061636B65743E2072656D6F744B
:102F5E0065446576696365436F6E74726F6C50611C
:102F6E00727365722829206661696C65640D0A00AA
:102F7E000D0A2D2D72656D6F7465446576696365F6
:102F8E00436F6E74726F6C5061727365722D2D206B
:102F9E00434D44205B3078253032585D0D0A007663
:102FAE00616C756520202020202020202020205BB1
:102FBE00256C645D0D0A003C4554485F70726F636A
:102FCE006573735061636B65743E207365745469E9
:102FDE006D6553796E63536368656D6128256C6406
:102FEE0029206661696C65640D0A005741524E20B6
:102FFE003A203C4554485F70726F6365737350613D
:10300E00636B65743E204445564354524C5F4D5598
:10301E0054455F414C41524D203A204554485F7211
:10302E00656D6F7465446576696365436F6E747222
:10303E006F6C41636B2829206661696C65640D0AAB
:10304E00003C4554485F70726F63657373506163E3
:10305E006B65743E20636C656172206C69737420BD
:10306E0041434B20696E76616C6964206C656E67B6
:10307E00746820282564290D0A003C4554485F7069
:10308E00726F636573735061636B65743E20636C1E
:10309E006561724C69737450617273657228292070
:1030AE006661696C65640D0A000D0A2D2D636C65F1
:1030BE0061724C6973745061727365722D2D20416B
:1030CE00434B205B3078253032585D0D0A00737407
:1030DE0061747573202020202020202020205B305A
:1030EE0078253032585D0D0A003C4554485F7072A9
:1030FE006F636573735061636B65743E20636C65BB
:10310E006172206475706C6963617465207265719B
:10311E0075657374202841434B292053554343450D
:10312E00535321210D0A003C4554485F70726F6362
:10313E006573735061636B65743E20636C65617279
:10314E00206475706C696361746520726571756554
:10315E007374202841434B29204641494C45445B1A
:10316E003078253032585D21210D0A003C455448F7
:10317E005F70726F636573735061636B65743E202D
:10318E00756E6B6E6F776E207479706520666F72D8
:10319E0020636C725F6C73745F73742D3E636D6429
:1031AE00205B3078253032585D0D0A003C4554487E
:1031BE005F70726F636573735061636B65743E20ED
:1031CE006669726D776172652075706C6F616420CF
:1031DE006861736E277420737570706F7274656496
:1031EE00207965740D0A000D0A3C4554485F7072D3
:1031FE006F636573735061636B65743E20696E76A1
:10320E00616C6964206672616D65207479706520E9
:10321E00282025303258202921210D0A003C455402
:10322E00485F726563656976653E206D616C6C6F93
:10323E00632E2E4641494C45442E2E0D0A007E002B
:10324E000D0A696E76616C6964206C656E677468D0
:10325E0021210D0A003C4554485F7265636569760D
:10326E00653E20636865636B73756D206572726F62
:10327E00720D0A003C4554485F73656E643E2057DC
:10328E0041524E494E47203A205061636B6574207F
:10329E00697320746F6F206C6F6E672825642062CF
:1032AE0079746573290D0A003C4554485F73656E49
:1032BE00643E205741524E494E47203A20455448CD
:1032CE005F73656E64206D616C6C6F6320666169FF
:1032DE006C656420282564290D0A003C4554485F1E
:1032EE0073656E643E204554485F6164645761693E
:1032FE007451756575652829206661696C65642051
:10330E005B69643A3078253032585D0D0A003C45D1
:10331E0054485F7377697463684D6F64653E2073BC
:10332E00776974636820746F20436F6E66696720D7
:10333E006D6F64650D0A003C4554485F7377697480
:10334E0063684D6F64653E2073776974636820749B
:10335E006F204E6F726D616C206D6F64650D0A008B
:10336E003C4554485F676574436F6E6669673E20DF
:10337E00577269746520746F2075617274203020E5
:10338E003A003C4554485F736574436F6E666967D7
:10339E003E206D616C6C6F6328434F4E465F524505
:1033AE0041445F42554646455229206661696C6527
:1033BE00640D0A003C4554485F736574436F6E6636
:1033CE0069673E20577269746520746F207561724B
:1033DE00742030203A003C4554485F736574436F47
:1033EE006E6669673E207265616420636F6E666902
:1033FE00672066726F6D20455448206D6F64756C42
:10340E0065206661696C65640D0A002530325825A9
:10341E003032582530325825303258253032582522
:10342E003032582530325825303258253032582512
:10343E003032582530325825303258003C455448E9
:10344E005F736574436F6E6669673E2053657420C3
:10345E00537472696E67205B25735D0D0A003C45DF
:10346E0054485F736574436F6E6669673E2053659B
:10347E007474696E67206D7367202D2D2D0D0A00F3
:10348E000D0A2D2D2D0D0A003C4554485F726573B3
:10349E0065743E20526573657474696E6720457459
:1034AE006865726E6574204D6F64756C652C207046
:1034BE006C6561736520776169742E002E2E2E4423
:1034CE006F6E650D0A003C7374617475735265718D
:1034DE00756573745061727365723E206D616C6CAC
:1034EE006F63206661696C65640D0A003C636F6EE4
:1034FE006669674D616E6167655061727365723E94
:10350E000D0A003C636F6E6669674D616E6167659B
:10351E005061727365723E2052454144494E470DCB
:10352E000A003C636F6E6669674D616E6167655038
:10353E0061727365723E2057524954494E470D0AC7
:10354E00003C636F6E6669674D616E6167655061C1
:10355E00727365723E20636F6E664C656E203D2001
:10356E0025640D0A003C636F6E6669674D616E617E
:10357E0067655061727365723E206D616C6C6F632E
:10358E00206661696C65640D0A003C6E6574776F28
:10359E00726B4D61696E74656E616E6365506172BA
:1035AE007365723E206D616C6C6F63206661696C31
:1035BE00656420282564290D0A003C676574436FF5
:1035CE006E6669674C656E3E20756E6B6E6F776EBC
:1035DE0020636F6E66696775726174696F6E2074B1
:1035EE00797065205B3078253032585D0D0A003CCD
:1035FE00636F6E666967526561643E20434F4E4647
:10360E005F50524F50455254494553206D616C6C7A
:10361E006F6331206661696C6564202825642062C1
:10362E0079746573290D0A003C636F6E6669675283
:10363E006561643E2067657450726F70657274695F
:10364E006573436F6E6669672829206661696C65CC
:10365E00640D0A000D0A2D2D2D20524541442043A4
:10366E004F4E465F50524F50455254494553202DB0
:10367E002D2D0D0A0025730D0A0025640D0A003C40
:10368E00636F6E666967526561643E20434F4E46B6
:10369E005F4F504552415445206D616C6C6F6331E4
:1036AE00206661696C6564202825642062797465E2
:1036BE0073290D0A003C636F6E666967526561641B
:1036CE003E206765744F7065726174696E67436FF3
:1036DE006E6669672829206661696C65640D0A004B
:1036EE000D0A2D2D2D205245414420434F4E465F4D
:1036FE004F504552415445202D2D2D0D0A006D6F12
:10370E0064652020202020202020202020205B30D7
:10371E0078253032585D0D0A00646576696365451B
:10372E006E61626C65202020205B30782530325827
:10373E005D0D0A00616C61726D456E61626C652093
:10374E00202020205B3078253032585D0D0A007322
:10375E00656E736F72456E61626C6520202020006D
:10376E005B3078253032585D003C636F6E6669675A
:10377E00526561643E20434F4E465F53454E534F54
:10378E0052206D616C6C6F6331206661696C65648B
:10379E0020282564206279746573290D0A003C6324
:1037AE006F6E666967526561643E20676574536526
:1037BE006E736F72436F6E66696728292066616942
:1037CE006C65640D0A000D0A2D2D2D2052454144C5
:1037DE0020434F4E465F53454E534F52205B256458
:1037EE005D2D2D2D0D0A0073616D706C696E675223
:1037FE00617465202020205B25645D0D0A007265D2
:10380E004F6363757272656E6365202020205B3096
:10381E0078253034585D0D0A0074696D65537461F6
:10382E007274486F75722020205B25645D0D0A004E
:10383E0074696D6553746172744D696E2020202019
:10384E005B25645D0D0A0074696D6553746F704875
:10385E006F7572202020205B25645D0D0A0074694F
:10386E006D6553746F704D696E20202020205B258E
:10387E00645D0D0A006C6F7765724C696D6974201A
:10388E0020202020205B25665D0D0A006C6F776579
:10389E007244656C61792020202020205B25645DB8
:1038AE000D0A006C6F77657245787472656D6520D0
:1038BE002020205B25665D0D0A0075707065724CC8
:1038CE00696D69742020202020205B25665D0D0A1D
:1038DE0000757070657244656C617920202020201F
:1038EE00205B25645D0D0A007570706572457874F5
:1038FE0072656D65202020205B25665D0D0A003CFB
:10390E00636F6E666967526561643E20434F4E4633
:10391E005F4155584449206D616C6C6F6331206670
:10392E0061696C6564202825642062797465732949
:10393E000D0A003C636F6E666967526561643E20D6
:10394E0067657441757844696E436F6E6669672862
:10395E0029206661696C65640D0A000D0A2D2D2DF6
:10396E00205245414420434F4E465F4155584449ED
:10397E00205B25645D2D2D2D0D0A006368616E6E32
:10398E00656C456E61626C65202020205B30782569
:10399E003032585D0D0A00616C61726D44656C6168
:1039AE0079202020202020205B25645D0D0A003C1C
:1039BE00636F6E666967526561643E20434F4E4683
:1039CE005F415558444F206D616C6C6F63312066BA
:1039DE0061696C6564202825642062797465732999
:1039EE000D0A003C636F6E666967526561643E2026
:1039FE00676574417578446F7574436F6E66696759
:103A0E002829206661696C65640D0A000D0A2D2D4A
:103A1E002D205245414420434F4E465F4155584458
:103A2E004F205B25645D2D2D2D0D0A006368616EA0
:103A3E006E656C456E61626C6520202020205B30C7
:103A4E0078253032585D0D0A0073746174654F6EBF
:103A5E004576656E742020202020205B25645D0D48
:103A6E000A006576656E74536F757263654E756D7B
:103A7E00626572205B25645D0D0A006576656E7465
:103A8E00536F7572636520202020202020003C6338
:103A9E006F6E666967526561643E20434F4E465FA6
:103AAE004155584149206D616C6C6F6331206661E0
:103ABE00696C656420282564206279746573290D0C
:103ACE000A003C636F6E666967526561643E2067EB
:103ADE00657441757841696E436F6E666967282912
:103AEE00206661696C65640D0A000D0A2D2D2D206E
:103AFE005245414420434F4E465F4155584149205F
:103B0E005B25645D2D2D2D0D0A00616C61726D4477
:103B1E00656C6179202020202020205B25665D0DBC
:103B2E000A003C636F6E666967526561643E2043AE
:103B3E004F4E465F415558414F206D616C6C6F631F
:103B4E0031206661696C6564202825642062797471
:103B5E006573290D0A003C636F6E66696752656175
:103B6E00643E20676574417578416F7574436F6E5E
:103B7E006669672829206661696C65640D0A000D07
:103B8E000A2D2D2D205245414420434F4E465F4174
:103B9E005558414F205B25645D2D2D2D0D0A006C6F
:103BAE006576656C4F6E4576656E742020202020FC
:103BBE00205B25665D0D0A003C636F6E6669675279
:103BCE006561643E20434F4E465F42555A5A4552F8
:103BDE00206D616C6C6F6331206661696C65642069
:103BEE00282564206279746573290D0A003C636F81
:103BFE006E666967526561643E2067657442757AC8
:103C0E007A6572436F6E6669672829206661696CF2
:103C1E0065640D0A000D0A2D2D2D205245414420BC
:103C2E00434F4E465F42555A5A4552202D2D2D0D6B
:103C3E000A00656E61626C65202020202020202005
:103C4E00202020205B3078253032585D0D0A003C54
:103C5E00636F6E666967526561643E20434F4E46E0
:103C6E005F454E56414C41524D206D616C6C6F63F9
:103C7E0031206661696C6564202825642062797440
:103C8E006573290D0A003C636F6E66696752656144
:103C9E00643E20676574456E76416C61726D436F4C
:103CAE006E6669672829206661696C65640D0A0075
:103CBE000D0A2D2D2D205245414420434F4E465F77
:103CCE00454E56414C41524D202D2D2D0D0A00676B
:103CDE00736D525353494C6576656C20202020201D
:103CEE00205B25665D0D0A0067736D43726564691E
:103CFE007442616C616E636520205B25645D0D0A04
:103D0E0000626174746572794C6576656C20202052
:103D1E002020205B25665D0D0A00636F6D6D536973
:103D2E00676E616C4C6576656C2020205B25665D48
:103D3E000D0A00636F6D6D4C6F737444656C617921
:103D4E0020202020205B25645D0D0A006D656D6FBF
:103D5E0072794D696E2020202020202020205B25A6
:103D6E00645D0D0A003C636F6E666967526561643F
:103D7E003E20434F4E465F535441545245504F528E
:103D8E0054206D616C6C6F6331206661696C656483
:103D9E0020282564206279746573290D0A003C631E
:103DAE006F6E666967526561643E20676574537411
:103DBE00617475735265706F7274436F6E66696766
:103DCE002829206661696C65640D0A000D0A2D2D87
:103DDE002D205245414420434F4E465F535441548B
:103DEE005245504F5254202D2D2D0D0A0061636304
:103DFE006D2020202020205B3078253032585D0D3C
:103E0E000A00696E74762020202020205B25645DD8
:103E1E000D0A003C636F6E666967526561643E20F1
:103E2E00756E6B6E6F776E20636F6E6669677572F7
:103E3E006174696F6E2074797065205B30782530FF
:103E4E0032585D0D0A000D0A202D2D2D2057524996
:103E5E00544520434F4E464947207061636B65744D
:103E6E0020282564292D2D2D200D0A000D0A2D2D1B
:103E7E002D20577269746520434F4E465F50524F46
:103E8E0050455254494553202D2D2D003C636F6EE5
:103E9E0066696757726974653E2073657450726FF8
:103EAE0070657274696573436F6E66696728292041
:103EBE006661696C65640D0A000D0A2D2D2D205763
:103ECE007269746520434F4E465F4F5045524154C0
:103EDE0045202D2D2D003C636F6E66696757726904
:103EEE0074653E207365744F7065726174696E6798
:103EFE00436F6E6669672829206661696C65640D7B
:103F0E000A000D0A2D2D2D20577269746520434F1E
:103F1E004E465F53454E534F522028256429202D7F
:103F2E002D2D003C636F6E66696757726974653E2E
:103F3E002073657453656E736F72436F6E66696737
:103F4E002829206661696C65640D0A000D0A2D2D05
:103F5E002D20577269746520434F4E465F41555868
:103F6E0044492028256429202D2D2D003C636F6E99
:103F7E0066696757726974653E207365744175781A
:103F8E0044696E436F6E6669672829206661696CA5
:103F9E0065640D0A000D0A2D2D2D2057726974656A
:103FAE0020434F4E465F415558444F2028256429E3
:103FBE00202D2D2D003C636F6E66696757726974F4
:103FCE00653E20736574417578446F7574436F6EEA
:103FDE006669672829206661696C65640D0A000DA3
:103FEE000A2D2D2D20577269746520434F4E465F62
:103FFE0041555841492028256429202D2D2D003C5E
:10400E00636F6E66696757726974653E2073657477
:10401E0041757841696E436F6E666967282920661F
:10402E0061696C65640D0A000D0A2D2D2D205772E5
:10403E0069746520434F4E465F415558414F2028C5
:10404E00256429202D2D2D003C636F6E6669675700
:10405E00726974653E20736574417578416F75742D
:10406E00436F6E6669672829206661696C65640D09
:10407E000A000D0A2D2D2D20577269746520434FAD
:10408E004E465F42555A5A4552202D2D2D003C6307
:10409E006F6E66696757726974653E207365744208
:1040AE00757A7A6572436F6E666967282920666134
:1040BE00696C65640D0A000D0A2D2D2D205772694D
:1040CE00746520434F4E465F454E56414C41524D0E
:1040DE00202D2D2D003C636F6E66696757726974D3
:1040EE00653E20736574456E76416C61726D436FEB
:1040FE006E6669672829206661696C65640D0A0021
:10410E000D0A2D2D2D20577269746520434F4E4692
:10411E005F535441545245504F5254202D2D2D0073
:10412E003C636F6E66696757726974653E2073658E
:10413E00745374617475735265706F7274436F6EDD
:10414E006669672829206661696C65640D0A003C02
:10415E007365744C6F674D616E6970756C617465D3
:10416E00536368656D613E2074696D65207065727C
:10417E00696F64206572726F722073746172745B02
:10418E00256C645D202D2073746F705B256C645DEF
:10419E000D0A003C73657454696D6553796E6353F3
:1041AE006368656D613E20476F74203020556E69DF
:1041BE00782074696D65207374616D700D0A003C12
:1041CE0073657454696D6553796E63536368656D79
:1041DE00613E2052656365697665642074696D651C
:1041EE002073796E632E207061636B657420256C6D
:1041FE00640D0A003C73657454696D6553796E6382
:10420E00536368656D613E205254435F736574421B
:10421E00696E61727928256C6429206661696C6506
:10422E00640D0A003C7365744D757465416C617262
:10423E006D3E207065726D616E656E74206D757465
:10424E006520616C61726D0D0A003C7365744D756D
:10425E007465416C61726D3E20696E76616C696445
:10426E0020706572696F642028256C64290D0A0020
:10427E003C7365744D757465416C61726D3E206D55
:10428E0075746520616C61726D20666F7220256C8D
:10429E0064207365636F6E640D0A003C7365744D24
:1042AE00757465416C61726D3E20414C41524D5F9B
:1042BE006D75746528256C6429206661696C65646A
:1042CE000D0A0000000000000D0A0D0A3C4554487E
:1042DE005F6164645761697451756575653E2057F9
:1042EE0041524E494E47203A2057616974207175EC
:1042FE006575652046554C4C0D0A0D0A003C45541B
:10430E00485F6164645761697451756575653E20D7
:10431E006D616C6C6F6328256429206661696C651C
:10432E00640D0A000D0A20202020202020202020AD
:10433E00202020202020202020202020202020206F
:10434E00202020202020202020202041646465642D
:10435E002028253032582920746F206574685F77C5
:10436E0061697451756575655B25645D0D0A000D97
:10437E000A20202020202020202020202020202045
:10438E00202020202020202020202020202020201F
:10439E0020202020202052656D6F76656420282510
:1043AE003032582920746F206574685F77616974A4
:1043BE0051756575655B25645D0D0A000D0A0D0A64
:1043CE005741524E494E47203A204554485F726538
:1043DE006D6F766557616974517565756528253001
:1043EE00325829206E6F7420666F756E6421210D10
:1043FE000A0D0A00FFFFFFFFFF0000000000000093
:10440E00000000000000000000003C73656E736F3A
:10441E0072526561643E204552523A20636820769E
:10442E00616C7565206F7574206F662072616E67A2
:10443E00650D0A003C73656E736F7243616C696241
:10444E0072617465313E2041424F52543A20736579
:10445E006E736F722063682025642069732064690F
:10446E007361626C650D0A003C73656E736F724307
:10447E00616C696272617465313E2041424F5254E3
:10448E003A2073656E736F72206368202564206511
:10449E0072726F7228307825303258290D0A003C1E
:1044AE0073656E736F7243616C69627261746532AB
:1044BE003E2041424F52543A2073656E736F722004
:1044CE006368202564204E6F2073657420706F69B9
:1044DE006E7420666F756E640D0A003C73656E73A4
:1044EE006F7243616C696272617465323E202D2D6C
:1044FE002043414C5F4558544F4646534554202D5A
:10450E002D0D0A003C73656E736F7243616C6962A8
:10451E0072617465323E202D2D432D2D3E20256671
:10452E000D0A003C73656E736F7243616C69627243
:10453E00617465323E202D2D2043414C5F45585409
:10454E004C494E454152202D2D0D0A003C73656E8F
:10455E00736F7243616C696272617465323E202DB5
:10456E002D422D2D3E2025660D0A003C73656E737F
:10457E006F7243616C696272617465323E202D2DDB
:10458E002043414C5F455854504F4C594E4F4D4966
:10459E00414C202D2D0D0A003C73656E736F7243D6
:1045AE00616C696272617465323E202D2D412D2D34
:1045BE003E2025660D0A003C73656E736F7247656B
:1045CE007443757272656E74536574506F696E7450
:1045DE003E2074656D7052656631203D205B256608
:1045EE005D5B25665D0D0A003C73656E736F7247E9
:1045FE00657443757272656E74536574506F696E2F
:10460E00743E2074656D7052656631206E6F742035
:10461E00736574205B302E30305D0D0A00302E3005
:10462E0030003C73656E736F7247657443757272BA
:10463E00656E74536574506F696E743E2074656D4B
:10464E007052656632203D205B25665D5B25665D9A
:10465E000D0A003C73656E736F7247657443757215
:10466E0072656E74536574506F696E743E20746516
:10467E006D7052656632206E6F7420736574205BA8
:10468E00302E30305D0D0A003C73656E736F7247CD
:10469E00657443757272656E74536574506F696E8E
:1046AE00743E2074656D7052656633203D205B2527
:1046BE00665D5B25665D0D0A003C73656E736F72F9
:1046CE0047657443757272656E74536574506F6985
:1046DE006E743E2074656D7052656633206E6F7415
:1046EE0020736574205B302E30305D0D0A003C73F4
:1046FE00656E736F7247657443757272656E74532F
:10470E006574506F696E743E20696E76616C696473
:10471E0020706172616D74657220706E742D3E5BD7
:10472E0025645D0D0A003C73656E736F7247657488
:10473E0043757272656E74536574506F696E743E14
:10474E0020726561642076616C28256429203D20E5
:10475E005B25735D0D0A003C73656E736F72476562
:10476E007443757272656E74536574506F696E74AE
:10477E003E206F7574206F6620636F6E6469746976
:10478E006F6E2076616C537472203D20272573273F
:10479E00003C73656E736F72476574437572726514
:1047AE006E74536574506F696E743E206275662028
:1047BE0072656164005B25645D003C73656E736FAA
:1047CE007253657443757272656E74536574506F6F
:1047DE00696E743E2041424F52543A2073656E7397
:1047EE006F72206368202564206973206469736189
:1047FE00626C650D0A003C73656E736F725365745F
:10480E0043757272656E74536574506F696E743E43
:10481E002041424F52543A2073656E736F7220637B
:10482E0068202564206572726F72283078253032C8
:10483E0058290D0A003C73656E736F72536574438D
:10484E00757272656E74536574506F696E743E2026
:10485E006275663A205B25645D2F5B25645D5B2582
:10486E00645D5B25645D5B25645D5B25645D0D0A9F
:10487E00003C73656E736F72536574437572726527
:10488E006E74536574506F696E743E2073656E73EB
:10489E006F72202531642C20706F696E7420253163
:1048AE00642C2073657420746F205B25665D000098
:1048BE0000000000FFFFFFFFFF00FFFF3C7570646C
:1048CE00617465436F6D6D5374617475733E204CE6
:1048DE006F737454696D65722074696D65206C65B3
:1048EE006674203D20256C6428256C58290D0A001D
:1048FE003C757064617465436F6D6D53746174754E
:10490E00733E2053657276657220446F776E212157
:10491E00210D0A003C757064617465436F6D6D53B3
:10492E0074617475733E205365727665722055708E
:10493E002121210D0A003C636865636B50726F6222
:10494E0065416C61726D3E2073656E736F7220638C
:10495E0068616E6E656C206F7574206F6620726173
:10496E006E676520282564290D0A003C7570646108
:10497E007465446174615374617475733E20414271
:10498E004F52543A2073656E736F72206368616E76
:10499E006E656C206F7574206F662072616E676530
:1049AE0020282564290D0A003C75706461746544E5
:1049BE00696E5374617475733E206368616E6E65C3
:1049CE006C5B25645D206F7574206F662072616E5E
:1049DE0067650D0A003C67657444657669636553C7
:1049EE00746174653E207374617465203D205B3084
:1049FE0078253034585D0D0A0000FFFFFFFFFFFFE2
:104A0E00FFFFFFFFFFFFFFFFFFFFFFFFFFFFFFFFA8
:104A1E00FFFFFFFFFFFFFFFFFFFF690069006969EE
:104A2E00696969696900FFFFFFFFFF003C63686504
:104A3E00636B416C61726D46726F6D5372633E2093
:104A4E0047534D204E6F7420737570706F727420C3
:104A5E00796574205B3078253032585D0D0A003C44
:104A6E00636865636B416C61726D46726F6D5372F4
:104A7E00633E20616C61726D53726320756E6B6E56
:104A8E006F776E205B3078253032585D0D0A003C12
:104A9E00636865636B53656E6444696E416C6172E5
:104AAE006D3E206368616E6E656C206F7574206F4D
:104ABE00662072616E6765205B25645D0D0A003CA1
:104ACE00636865636B53656E6444617461416C61C8
:104ADE00726D3E2050726F62652025642064617491
:104AEE0061416C61726D5B3078253032585D0D0A14
:104AFE00003C414C41524D5F636865636B4D75746C
:104B0E0065457870697265643E20696E76616C6980
:104B1E0064206D7574654D6F646520282564290DBC
:104B2E000A004454253032642D253032642D253050
:104B3E00346400544D253032643A253032640044DA
:104B4E0056253164252E3166004456253164455272
:104B5E00524C42004456253164455252554200444F
:104B6E00562531644552524E430044562531644514
:104B7E0052525348004456253164444554454354DB
:104B8E00494E47003C4F4C45445F73686F77536501
:104B9E006E736F7256616C75653E2073656E736FC2
:104BAE00725B25645D2E73746174757320756E6B04
:104BBE006E6F776E205B3078253032585D0D0A00AF
:104BCE0044562531644E2F410043473100424C304C
:104BDE0000424C3100424C3200424C3300424C34C5
:104BEE00003C4F4C45445F73686F77496E70757427
:104BFE005374617475733E204552523A2063682097
:104C0E0076616C7565206F7574206F662072616EAB
:104C1E0067652E21210D0A00495025316425316426
:104C2E00003C4F4C45445F73686F774F75747075D9
:104C3E00745374617475733E204552523A20636802
:104C4E002076616C7565206F7574206F66207261B9
:104C5E006E67652E21210D0A004F502531642531D6
:104C6E0064005343253164004C4325316400425A9D
:104C7E00253164004D5325316400414C25316425A6
:104C8E003164253164253164253164253164253143
:104C9E006425316425316425316425316425316400
:104CAE00000D0A21212121204F4C454420457272CE
:104CBE006F7220212121210D0A00496E69746961EC
:104CCE006C697A696E67204F4C45442E2E20004F3A
:104CDE004B0D0A00303A2F000046525F4449534BA9
:104CEE005F4552520046525F494E545F4552520044
:104CFE0046525F4E4F545F52454144590046525FF3
:104D0E004E4F5F46494C450046525F4E4F5F5041F5
:104D1E0054480046525F494E56414C49445F4E41FD
:104D2E004D450046525F44454E4945440046525F4C
:104D3E0045584953540046525F494E56414C4944DA
:104D4E005F4F424A4543540046525F5752495445BD
:104D5E005F50524F5445435445440046525F494EAE
:104D6E0056414C49445F44524956450046525F4EA7
:104D7E004F545F454E41424C45440046525F4E4FA4
:104D8E005F46494C4553595354454D0046525F4D6D
:104D9E004B46535F41424F525445440046525F5476
:104DAE00494D454F5554003C4552523E2025702EDC
:104DBE000D0A003C53445F777269746544617461F7
:104DCE003E2053442043617264206E6F74207265DE
:104DDE006164790D0A003C53445F777269746544CF
:104DEE006174613E20665F6C7365656B282575295D
:104DFE00206661696C656421210D0A003C53445F95
:104E0E007772697465446174613E20665F7772697A
:104E1E0074652829206661696C65640D0A003C532F
:104E2E00445F7772697465446174613E2061637496
:104E3E0075616C5F77726974655B25755D20213DC8
:104E4E00206C656E5B25755D0D0A003C53445F72E8
:104E5E00656164446174613E205344204361726411
:104E6E00206E6F742072656164790D0A003C5344A4
:104E7E005F72656164446174613E20665F6C736548
:104E8E00656B28257529206661696C656421210D85
:104E9E000A003C53445F72656164446174613E2054
:104EAE00665F726561642829206661696C65640DB0
:104EBE000A003C53445F7772697465446174613EC5
:104ECE002061637475616C5F726561645B25755DED
:104EDE0020213D206C656E5B25755D0D0A003C53EF
:104EEE00445F726561644D656D6F727952656D6177
:104EFE00696E3E20665F6765746672656528257308
:104F0E0029206572726F7221210D0A004C6F67693C
:104F1E0063616C20647269766520303A206D6F751E
:104F2E006E746564204552524F520D0A004C6F67E5
:104F3E006963616C20647269766520303A206D6F0A
:104F4E00756E746564204F4B0D0A004C6F67696374
:104F5E00616C20647269766520303A20756E6D6FD3
:104F6E00756E746564204552524F520D0A004C6F97
:104F7E00676963616C20647269766520303A2075CA
:104F8E006E6D6F756E746564204F4B0D0A003C5349
:104F9E00445F72656D6F756E743E2053445F756E1F
:104FAE006D6F756E742829206661696C65640D0AD3
:104FBE00003C53445F72656D6F756E743E205344B2
:104FCE005F6D6F756E742829206661696C65640D5E
:104FDE000A003C53445F63726561746546696C6593
:104FEE003E2053442043617264206E6F74207265BC
:104FFE006164790D0A0025732573003C53445F6389
:10500E00726561746546696C653E20665F6F70659A
:10501E006E2829206661696C65640D0A003C534454
:10502E005F63726561746546696C653E20665F6399
:10503E006C6F73652829206661696C65640D0A00C2
:10504E003C53445F6F70656E46696C653E205344F9
:10505E002043617264206E6F742072656164790DF5
:10506E000A003C53445F6F70656E46696C653E2066
:10507E00665F6F70656E2829205B25735D20666103
:10508E00696C65640D0A003C53445F636C6F736515
:10509E0046696C653E2053442043617264206E6FF6
:1050AE00742072656164790D0A003C53445F636C31
:1050BE006F736546696C653E20665F636C6F7365E2
:1050CE002829206661696C65640D0A003C53445FB3
:1050DE00696E69743E20537461727420696E6974CE
:1050EE0069616C206D656D6F727920636172640DFC
:1050FE000A000D0A3C53445F696E69743E204D6F81
:10510E00756E74696E6720534420436172642E2E4F
:10511E002E003C53445F696E69743E2053445F6DAC
:10512E006F756E742829206661696C65640D0A00BE
:10513E000D0A3C53445F696E69743E204368656393
:10514E006B20436172642053697A652E2E2E003CCB
:10515E0053445F696E69743E2053445F72656164A7
:10516E004D656D6F727952656D61696E2829206685
:10517E0061696C65640D0A003C53445F696E697425
:10518E003E2046726565207370616365206F6E20E8
:10519E006C6F676963616C20647269766520303A62
:1051AE0020256C75206B62797465730D0A0064613D
:1051BE0074612E6C6F676576656E742E6C6F67000A
:1051CE006572726F722E6C6F670000000000000037
:1051DE000000FFFFFFFFFFFFFFFF397E0000787E1C
:1051EE0000003C4C4F475F696E7365727444617486
:1051FE00613E204C4F475F6765744C617374496E16
:10520E00736572742829206661696C65640D0A00E5
:10521E003C4C4F475F696E73657274446174613EB6
:10522E002053445F77726974654461746128666CBB
:10523E00616729206661696C65640D0A003C4C4FFC
:10524E00475F696E73657274446174613E205344A6
:10525E005F7772697465446174612874696D6573F2
:10526E0074616D7029206661696C65640D0A003C7D
:10527E004C4F475F696E73657274446174613E2072
:10528E0053445F7772697465446174612863686121
:10529E006E6E656C29206661696C65640D0A003C52
:1052AE004C4F475F696E73657274446174613E2042
:1052BE0053445F7772697465446174612876616CDA
:1052CE00756529206661696C65640D0A003C4C4F5A
:1052DE00475F696E73657274446174613E204C4F12
:1052EE00475F7365744C617374496E73657274288D
:1052FE00256C6429206661696C65640D0A003C4C5E
:10530E004F475F72656164446174613E204C4F4744
:10531E005F6765744C617374496E73657274282986
:10532E00206661696C65640D0A003C4C4F475F72E4
:10533E00656164446174613E204C4F475F676574DC
:10534E004C61737453656E642829206661696C65BF
:10535E00640D0A003C4C4F475F726561644576658B
:10536E006E743E206C61737453656E642F6C617342
:10537E0074496E7365727420202D2D3E20256C6449
:10538E002F256C640D0A003C4C4F475F72656164BB
:10539E00446174613E204C6F6720656D7074792E88
:1053AE002E21210D0A003C44454255475F436C6552
:1053BE0061724C6F6746696C653E204C4F475F6368
:1053CE00726561746546696C65282573292066616E
:1053DE00696C65640D0A003C4C4F475F72656164F1
:1053EE00446174613E2053445F726561644461742C
:1053FE006128666C616729206661696C65640D0AB7
:10540E00003C4C4F475F72656164446174613E209D
:10541E0053445F72656164446174612874696D659B
:10542E007374616D7029206661696C65640D0A0084
:10543E003C4C4F475F72656164446174613E20531A
:10544E00445F7265616444617461286368616E6E65
:10545E00656C29206661696C65640D0A003C4C4FD1
:10546E00475F72656164446174613E2053445F72AC
:10547E00656164446174612876616C756529206686
:10548E0061696C65640D0A003C4C4F475F696E7331
:10549E006572744576656E743E204C4F475F676546
:1054AE00744C617374496E73657274282920666139
:1054BE00696C65640D0A003C4C4F475F696E7365FD
:1054CE0072744576656E743E2053445F77726974CC
:1054DE00654461746128666C616729206661696C38
:1054EE0065640D0A003C4C4F475F696E73657274BC
:1054FE004576656E743E2053445F777269746544D9
:10550E006174612874696D657374616D70292066AC
:10551E0061696C65640D0A003C4C4F475F696E73A0
:10552E006572744576656E743E2053445F7772697A
:10553E0074654461746128696429206661696C65CB
:10554E00640D0A003C4C4F475F696E73657274457B
:10555E0076656E743E2053445F777269746544615C
:10556E0074612873746174757329206661696C6542
:10557E00640D0A003C4C4F475F696E73657274454B
:10558E0076656E743E204C4F475F7365744C617345
:10559E0074496E7365727428256C6429206661697E
:1055AE006C65640D0A003C4C4F475F726561644543
:1055BE0076656E743E204C4F475F6765744C617321
:1055CE0074496E736572742829206661696C65640E
:1055DE000D0A003C4C4F475F726561644576656EFF
:1055EE00743E204C4F475F6765744C61737453650E
:1055FE006E642829206661696C65640D0A003C4C56
:10560E004F475F726561644576656E743E204C6FE0
:10561E006720656D7074792E2E21210D0A003C4C89
:10562E004F475F726561644576656E743E205344E4
:10563E005F726561644461746128666C61672920DC
:10564E006661696C65640D0A003C4C4F475F72657C
:10565E0061644576656E743E2053445F7265616485
:10566E00446174612874696D657374616D7029206D
:10567E006661696C65640D0A003C4C4F475F72654C
:10568E0061644576656E743E2053445F7265616455
:10569E004461746128696429206661696C65640DD2
:1056AE000A003C4C4F475F726561644576656E74C7
:1056BE003E2053445F726561644461746128737463
:1056CE006174757329206661696C65640D0A003C0E
:1056DE004C4F475F6765744C617374496E736572A6
:1056EE00743E2053445F726561644461746128297D
:1056FE00206661696C65640D0A003C4C4F475F671C
:10570E0065744C617374496E736572743E20676F75
:10571E007420256C640D0A003C4C4F475F73657412
:10572E004C617374496E736572743E20777269743E
:10573E00696E6720256C640D0A003C4C4F475F7301
:10574E0065744C617374496E736572743E20534474
:10575E005F72656164446174612829206661696CB9
:10576E0065640D0A003C4C4F475F6765744C61736E
:10577E007453656E643E2053445F72656164446188
:10578E0074612829206661696C65640D0A003C4CC1
:10579E004F475F6765744C61737453656E643E204A
:1057AE00676F7420256C640D0A003C4C4F475F7385
:1057BE0065744C61737453656E643E2077726974C0
:1057CE00696E6720256C640D0A003C4C4F475F7371
:1057DE0065744C61737453656E643E2053445F72FE
:1057EE00656164446174612829206661696C656431
:1057FE000D0A003C4C4F475F6372656174654669E4
:10580E006C653E2053445F63726561746546696CD6
:10581E006528257329206661696C65640D0A003C54
:10582E004C4F475F63726561746546696C653E20D7
:10583E00257320616C726561647920657869737473
:10584E000D0A003C4C4F475F637265617465466993
:10585E006C653E20257320637265617465640D0A64
:10586E00003C4C4F475F63726561746546696C65B9
:10587E003E20257320636F6E7461696E6564206EC1
:10588E006F20696E697469616C20646174610D0AC0
:10589E00003C4C4F475F63726561746546696C6589
:1058AE003E2053445F6F70656E46696C65282573A4
:1058BE0029206661696C65640D0A003C4C4F475F98
:1058CE0063726561746546696C653E2077726974B2
:1058DE00696E6720696E697469616C2064617461B8
:1058EE000D0A003C4C4F475F6372656174654669F3
:1058FE006C653E2053445F777269746544617461D0
:10590E002829206661696C65642057726974696E16
:10591E00672E2E200D0A003C4C4F475F6372656167
:10592E00746546696C653E2053445F636C6F7365A6
:10593E0046696C652829206661696C65640D0A00EC
:10594E003C4C4F475F696E69743E20496E697469BD
:10595E00616C206C6F672066696C650D0A003C4CAB
:10596E004F475F696E69743E204C4F475F637265A7
:10597E0061746546696C6528257329206661696CBA
:10598E0065640D0A00000D0A0D0A3C6164644461F1
:10599E0074614C6F6751756575653E205741524E67
:1059AE00494E47203A20646174614C6F67517565AA
:1059BE0075652046554C4C0D0A0D0A000D0A3C61CA
:1059CE006464446174614C6F6751756575653E2002
:1059DE0020202020202020202020202020202020B9
:1059EE002020202020202020202041646465642077
:1059FE0028253032582920746F20646174614C6FF1
:105A0E006751756575655B25645D20436F756E74B2
:105A1E00203D2025640D0A003C726561644461746A
:105A2E00614C6F6751756575653E205741524E3A10
:105A3E0020646174614C6F67517565756520656D85
:105A4E0070747921210D0A003C72656164446174A1
:105A5E00614C6F6751756575653E205741524E3AE0
:105A6E00206E6F7420666F756E642069645B30788B
:105A7E00253032585D20696E20646174614C6F6709
:105A8E0051756575650D0A000D0A3C72656D6F7670
:105A9E0065446174614C6F6751756575653E202074
:105AAE0020202020202020202020202020202020E8
:105ABE0020202020202052656D6F766564202825D9
:105ACE00303258292066726F6D20646174614C6F9C
